{
  "contractName": "StickMan",
  "abi": [
    {
      "inputs": [],
      "stateMutability": "nonpayable",
      "type": "constructor"
    },
    {
      "anonymous": false,
      "inputs": [
        {
          "indexed": true,
          "internalType": "address",
          "name": "owner",
          "type": "address"
        },
        {
          "indexed": true,
          "internalType": "address",
          "name": "approved",
          "type": "address"
        },
        {
          "indexed": true,
          "internalType": "uint256",
          "name": "tokenId",
          "type": "uint256"
        }
      ],
      "name": "Approval",
      "type": "event"
    },
    {
      "anonymous": false,
      "inputs": [
        {
          "indexed": true,
          "internalType": "address",
          "name": "owner",
          "type": "address"
        },
        {
          "indexed": true,
          "internalType": "address",
          "name": "operator",
          "type": "address"
        },
        {
          "indexed": false,
          "internalType": "bool",
          "name": "approved",
          "type": "bool"
        }
      ],
      "name": "ApprovalForAll",
      "type": "event"
    },
    {
      "anonymous": false,
      "inputs": [
        {
          "indexed": true,
          "internalType": "address",
          "name": "from",
          "type": "address"
        },
        {
          "indexed": true,
          "internalType": "address",
          "name": "to",
          "type": "address"
        },
        {
          "indexed": true,
          "internalType": "uint256",
          "name": "tokenId",
          "type": "uint256"
        }
      ],
      "name": "Transfer",
      "type": "event"
    },
    {
      "inputs": [
        {
          "internalType": "uint256",
          "name": "",
          "type": "uint256"
        }
      ],
      "name": "StickMans",
      "outputs": [
        {
          "internalType": "uint256",
          "name": "",
          "type": "uint256"
        }
      ],
      "stateMutability": "view",
      "type": "function",
      "constant": true
    },
    {
      "inputs": [
        {
          "internalType": "address",
          "name": "to",
          "type": "address"
        },
        {
          "internalType": "uint256",
          "name": "tokenId",
          "type": "uint256"
        }
      ],
      "name": "approve",
      "outputs": [],
      "stateMutability": "nonpayable",
      "type": "function"
    },
    {
      "inputs": [
        {
          "internalType": "address",
          "name": "owner",
          "type": "address"
        }
      ],
      "name": "balanceOf",
      "outputs": [
        {
          "internalType": "uint256",
          "name": "",
          "type": "uint256"
        }
      ],
      "stateMutability": "view",
      "type": "function",
      "constant": true
    },
    {
      "inputs": [
        {
          "internalType": "uint256",
          "name": "tokenId",
          "type": "uint256"
        }
      ],
      "name": "getApproved",
      "outputs": [
        {
          "internalType": "address",
          "name": "",
          "type": "address"
        }
      ],
      "stateMutability": "view",
      "type": "function",
      "constant": true
    },
    {
      "inputs": [
        {
          "internalType": "address",
          "name": "owner",
          "type": "address"
        },
        {
          "internalType": "address",
          "name": "operator",
          "type": "address"
        }
      ],
      "name": "isApprovedForAll",
      "outputs": [
        {
          "internalType": "bool",
          "name": "",
          "type": "bool"
        }
      ],
      "stateMutability": "view",
      "type": "function",
      "constant": true
    },
    {
      "inputs": [],
      "name": "name",
      "outputs": [
        {
          "internalType": "string",
          "name": "",
          "type": "string"
        }
      ],
      "stateMutability": "view",
      "type": "function",
      "constant": true
    },
    {
      "inputs": [
        {
          "internalType": "uint256",
          "name": "tokenId",
          "type": "uint256"
        }
      ],
      "name": "ownerOf",
      "outputs": [
        {
          "internalType": "address",
          "name": "",
          "type": "address"
        }
      ],
      "stateMutability": "view",
      "type": "function",
      "constant": true
    },
    {
      "inputs": [
        {
          "internalType": "address",
          "name": "from",
          "type": "address"
        },
        {
          "internalType": "address",
          "name": "to",
          "type": "address"
        },
        {
          "internalType": "uint256",
          "name": "tokenId",
          "type": "uint256"
        }
      ],
      "name": "safeTransferFrom",
      "outputs": [],
      "stateMutability": "nonpayable",
      "type": "function"
    },
    {
      "inputs": [
        {
          "internalType": "address",
          "name": "from",
          "type": "address"
        },
        {
          "internalType": "address",
          "name": "to",
          "type": "address"
        },
        {
          "internalType": "uint256",
          "name": "tokenId",
          "type": "uint256"
        },
        {
          "internalType": "bytes",
          "name": "_data",
          "type": "bytes"
        }
      ],
      "name": "safeTransferFrom",
      "outputs": [],
      "stateMutability": "nonpayable",
      "type": "function"
    },
    {
      "inputs": [
        {
          "internalType": "address",
          "name": "operator",
          "type": "address"
        },
        {
          "internalType": "bool",
          "name": "approved",
          "type": "bool"
        }
      ],
      "name": "setApprovalForAll",
      "outputs": [],
      "stateMutability": "nonpayable",
      "type": "function"
    },
    {
      "inputs": [],
      "name": "symbol",
      "outputs": [
        {
          "internalType": "string",
          "name": "",
          "type": "string"
        }
      ],
      "stateMutability": "view",
      "type": "function",
      "constant": true
    },
    {
      "inputs": [
        {
          "internalType": "uint256",
          "name": "index",
          "type": "uint256"
        }
      ],
      "name": "tokenByIndex",
      "outputs": [
        {
          "internalType": "uint256",
          "name": "",
          "type": "uint256"
        }
      ],
      "stateMutability": "view",
      "type": "function",
      "constant": true
    },
    {
      "inputs": [
        {
          "internalType": "address",
          "name": "owner",
          "type": "address"
        },
        {
          "internalType": "uint256",
          "name": "index",
          "type": "uint256"
        }
      ],
      "name": "tokenOfOwnerByIndex",
      "outputs": [
        {
          "internalType": "uint256",
          "name": "",
          "type": "uint256"
        }
      ],
      "stateMutability": "view",
      "type": "function",
      "constant": true
    },
    {
      "inputs": [
        {
          "internalType": "uint256",
          "name": "tokenId",
          "type": "uint256"
        }
      ],
      "name": "tokenURI",
      "outputs": [
        {
          "internalType": "string",
          "name": "",
          "type": "string"
        }
      ],
      "stateMutability": "view",
      "type": "function",
      "constant": true
    },
    {
      "inputs": [
        {
          "internalType": "address",
          "name": "from",
          "type": "address"
        },
        {
          "internalType": "address",
          "name": "to",
          "type": "address"
        },
        {
          "internalType": "uint256",
          "name": "tokenId",
          "type": "uint256"
        }
      ],
      "name": "transferFrom",
      "outputs": [],
      "stateMutability": "nonpayable",
      "type": "function"
    },
    {
      "inputs": [
        {
          "internalType": "bytes4",
          "name": "interfaceId",
          "type": "bytes4"
        }
      ],
      "name": "supportsInterface",
      "outputs": [
        {
          "internalType": "bool",
          "name": "",
          "type": "bool"
        }
      ],
      "stateMutability": "view",
      "type": "function",
      "constant": true
    },
    {
      "inputs": [],
      "name": "totalSupply",
      "outputs": [
        {
          "internalType": "uint256",
          "name": "",
          "type": "uint256"
        }
      ],
      "stateMutability": "view",
      "type": "function",
      "constant": true
    },
    {
      "inputs": [
        {
          "internalType": "uint256",
          "name": "_dna",
          "type": "uint256"
        }
      ],
      "name": "mint",
      "outputs": [],
      "stateMutability": "payable",
      "type": "function",
      "payable": true
    }
  ],
  "bytecode": "0x60806040523480156200001157600080fd5b506040518060400160405280600881526020017f537469636b4d616e0000000000000000000000000000000000000000000000008152506040518060400160405280600481526020017f53544b4d00000000000000000000000000000000000000000000000000000000815250816000908051906020019062000096929190620000b8565b508060019080519060200190620000af929190620000b8565b505050620001cd565b828054620000c69062000168565b90600052602060002090601f016020900481019282620000ea576000855562000136565b82601f106200010557805160ff191683800117855562000136565b8280016001018555821562000136579182015b828111156200013557825182559160200191906001019062000118565b5b50905062000145919062000149565b5090565b5b80821115620001645760008160009055506001016200014a565b5090565b600060028204905060018216806200018157607f821691505b602082108114156200019857620001976200019e565b5b50919050565b7f4e487b7100000000000000000000000000000000000000000000000000000000600052602260045260246000fd5b61308280620001dd6000396000f3fe6080604052600436106101095760003560e01c80634f6ccce711610095578063a0712d6811610064578063a0712d68146103b5578063a22cb465146103d1578063b88d4fde146103fa578063c87b56dd14610423578063e985e9c51461046057610109565b80634f6ccce7146102d35780636352211e1461031057806370a082311461034d57806395d89b411461038a57610109565b8063095ea7b3116100dc578063095ea7b3146101f057806318160ddd1461021957806323b872dd146102445780632f745c591461026d57806342842e0e146102aa57610109565b806301ffc9a71461010e5780630457420f1461014b57806306fdde0314610188578063081812fc146101b3575b600080fd5b34801561011a57600080fd5b50610135600480360381019061013091906121c0565b61049d565b60405161014291906129ea565b60405180910390f35b34801561015757600080fd5b50610172600480360381019061016d9190612212565b6104af565b60405161017f9190612c47565b60405180910390f35b34801561019457600080fd5b5061019d6104d3565b6040516101aa9190612a05565b60405180910390f35b3480156101bf57600080fd5b506101da60048036038101906101d59190612212565b610565565b6040516101e79190612983565b60405180910390f35b3480156101fc57600080fd5b5061021760048036038101906102129190612184565b6105ea565b005b34801561022557600080fd5b5061022e610702565b60405161023b9190612c47565b60405180910390f35b34801561025057600080fd5b5061026b6004803603810190610266919061207e565b61070f565b005b34801561027957600080fd5b50610294600480360381019061028f9190612184565b61076f565b6040516102a19190612c47565b60405180910390f35b3480156102b657600080fd5b506102d160048036038101906102cc919061207e565b610814565b005b3480156102df57600080fd5b506102fa60048036038101906102f59190612212565b610834565b6040516103079190612c47565b60405180910390f35b34801561031c57600080fd5b5061033760048036038101906103329190612212565b6108cb565b6040516103449190612983565b60405180910390f35b34801561035957600080fd5b50610374600480360381019061036f9190612019565b61097d565b6040516103819190612c47565b60405180910390f35b34801561039657600080fd5b5061039f610a35565b6040516103ac9190612a05565b60405180910390f35b6103cf60048036038101906103ca9190612212565b610ac7565b005b3480156103dd57600080fd5b506103f860048036038101906103f39190612148565b610bb5565b005b34801561040657600080fd5b50610421600480360381019061041c91906120cd565b610bcb565b005b34801561042f57600080fd5b5061044a60048036038101906104459190612212565b610c2d565b6040516104579190612a05565b60405180910390f35b34801561046c57600080fd5b5061048760048036038101906104829190612042565b610cd4565b60405161049491906129ea565b60405180910390f35b60006104a882610d68565b9050919050565b600a81815481106104bf57600080fd5b906000526020600020016000915090505481565b6060600080546104e290612e77565b80601f016020809104026020016040519081016040528092919081815260200182805461050e90612e77565b801561055b5780601f106105305761010080835404028352916020019161055b565b820191906000526020600020905b81548152906001019060200180831161053e57829003601f168201915b5050505050905090565b600061057082610de2565b6105af576040517f08c379a00000000000000000000000000000000000000000000000000000000081526004016105a690612b67565b60405180910390fd5b6004600083815260200190815260200160002060009054906101000a900473ffffffffffffffffffffffffffffffffffffffff169050919050565b60006105f5826108cb565b90508073ffffffffffffffffffffffffffffffffffffffff168373ffffffffffffffffffffffffffffffffffffffff161415610666576040517f08c379a000000000000000000000000000000000000000000000000000000000815260040161065d90612be7565b60405180910390fd5b8073ffffffffffffffffffffffffffffffffffffffff16610685610e4e565b73ffffffffffffffffffffffffffffffffffffffff1614806106b457506106b3816106ae610e4e565b610cd4565b5b6106f3576040517f08c379a00000000000000000000000000000000000000000000000000000000081526004016106ea90612ae7565b60405180910390fd5b6106fd8383610e56565b505050565b6000600a80549050905090565b61072061071a610e4e565b82610f0f565b61075f576040517f08c379a000000000000000000000000000000000000000000000000000000000815260040161075690612c07565b60405180910390fd5b61076a838383610fed565b505050565b600061077a8361097d565b82106107bb576040517f08c379a00000000000000000000000000000000000000000000000000000000081526004016107b290612a27565b60405180910390fd5b600660008473ffffffffffffffffffffffffffffffffffffffff1673ffffffffffffffffffffffffffffffffffffffff168152602001908152602001600020600083815260200190815260200160002054905092915050565b61082f83838360405180602001604052806000815250610bcb565b505050565b600061083e611249565b821061087f576040517f08c379a000000000000000000000000000000000000000000000000000000000815260040161087690612c27565b60405180910390fd5b600882815481106108b9577f4e487b7100000000000000000000000000000000000000000000000000000000600052603260045260246000fd5b90600052602060002001549050919050565b6000806002600084815260200190815260200160002060009054906101000a900473ffffffffffffffffffffffffffffffffffffffff169050600073ffffffffffffffffffffffffffffffffffffffff168173ffffffffffffffffffffffffffffffffffffffff161415610974576040517f08c379a000000000000000000000000000000000000000000000000000000000815260040161096b90612b27565b60405180910390fd5b80915050919050565b60008073ffffffffffffffffffffffffffffffffffffffff168273ffffffffffffffffffffffffffffffffffffffff1614156109ee576040517f08c379a00000000000000000000000000000000000000000000000000000000081526004016109e590612b07565b60405180910390fd5b600360008373ffffffffffffffffffffffffffffffffffffffff1673ffffffffffffffffffffffffffffffffffffffff168152602001908152602001600020549050919050565b606060018054610a4490612e77565b80601f0160208091040260200160405190810160405280929190818152602001828054610a7090612e77565b8015610abd5780601f10610a9257610100808354040283529160200191610abd565b820191906000526020600020905b815481529060010190602001808311610aa057829003601f168201915b5050505050905090565b600b600082815260200190815260200160002060009054906101000a900460ff1615610af257600080fd5b66038d7ea4c68000341015610b3c576040517f08c379a0000000000000000000000000000000000000000000000000000000008152600401610b3390612b87565b60405180910390fd5b600a81908060018154018082558091505060019003906000526020600020016000909190919091505560006001600a80549050610b799190612d8d565b9050610b853382611256565b6001600b600084815260200190815260200160002060006101000a81548160ff0219169083151502179055505050565b610bc7610bc0610e4e565b8383611424565b5050565b610bdc610bd6610e4e565b83610f0f565b610c1b576040517f08c379a0000000000000000000000000000000000000000000000000000000008152600401610c1290612c07565b60405180910390fd5b610c2784848484611591565b50505050565b6060610c3882610de2565b610c77576040517f08c379a0000000000000000000000000000000000000000000000000000000008152600401610c6e90612bc7565b60405180910390fd5b6000610c816115ed565b90506000815111610ca15760405180602001604052806000815250610ccc565b80610cab84611604565b604051602001610cbc92919061295f565b6040516020818303038152906040525b915050919050565b6000600560008473ffffffffffffffffffffffffffffffffffffffff1673ffffffffffffffffffffffffffffffffffffffff16815260200190815260200160002060008373ffffffffffffffffffffffffffffffffffffffff1673ffffffffffffffffffffffffffffffffffffffff16815260200190815260200160002060009054906101000a900460ff16905092915050565b60007f780e9d63000000000000000000000000000000000000000000000000000000007bffffffffffffffffffffffffffffffffffffffffffffffffffffffff1916827bffffffffffffffffffffffffffffffffffffffffffffffffffffffff19161480610ddb5750610dda826117b1565b5b9050919050565b60008073ffffffffffffffffffffffffffffffffffffffff166002600084815260200190815260200160002060009054906101000a900473ffffffffffffffffffffffffffffffffffffffff1673ffffffffffffffffffffffffffffffffffffffff1614159050919050565b600033905090565b816004600083815260200190815260200160002060006101000a81548173ffffffffffffffffffffffffffffffffffffffff021916908373ffffffffffffffffffffffffffffffffffffffff160217905550808273ffffffffffffffffffffffffffffffffffffffff16610ec9836108cb565b73ffffffffffffffffffffffffffffffffffffffff167f8c5be1e5ebec7d5bd14f71427d1e84f3dd0314c0f7b2291e5b200ac8c7c3b92560405160405180910390a45050565b6000610f1a82610de2565b610f59576040517f08c379a0000000000000000000000000000000000000000000000000000000008152600401610f5090612ac7565b60405180910390fd5b6000610f64836108cb565b90508073ffffffffffffffffffffffffffffffffffffffff168473ffffffffffffffffffffffffffffffffffffffff161480610fd357508373ffffffffffffffffffffffffffffffffffffffff16610fbb84610565565b73ffffffffffffffffffffffffffffffffffffffff16145b80610fe45750610fe38185610cd4565b5b91505092915050565b8273ffffffffffffffffffffffffffffffffffffffff1661100d826108cb565b73ffffffffffffffffffffffffffffffffffffffff1614611063576040517f08c379a000000000000000000000000000000000000000000000000000000000815260040161105a90612ba7565b60405180910390fd5b600073ffffffffffffffffffffffffffffffffffffffff168273ffffffffffffffffffffffffffffffffffffffff1614156110d3576040517f08c379a00000000000000000000000000000000000000000000000000000000081526004016110ca90612a87565b60405180910390fd5b6110de838383611893565b6110e9600082610e56565b6001600360008573ffffffffffffffffffffffffffffffffffffffff1673ffffffffffffffffffffffffffffffffffffffff16815260200190815260200160002060008282546111399190612d8d565b925050819055506001600360008473ffffffffffffffffffffffffffffffffffffffff1673ffffffffffffffffffffffffffffffffffffffff16815260200190815260200160002060008282546111909190612d06565b92505081905550816002600083815260200190815260200160002060006101000a81548173ffffffffffffffffffffffffffffffffffffffff021916908373ffffffffffffffffffffffffffffffffffffffff160217905550808273ffffffffffffffffffffffffffffffffffffffff168473ffffffffffffffffffffffffffffffffffffffff167fddf252ad1be2c89b69c2b068fc378daa952ba7f163c4a11628f55a4df523b3ef60405160405180910390a4505050565b6000600880549050905090565b600073ffffffffffffffffffffffffffffffffffffffff168273ffffffffffffffffffffffffffffffffffffffff1614156112c6576040517f08c379a00000000000000000000000000000000000000000000000000000000081526004016112bd90612b47565b60405180910390fd5b6112cf81610de2565b1561130f576040517f08c379a000000000000000000000000000000000000000000000000000000000815260040161130690612a67565b60405180910390fd5b61131b60008383611893565b6001600360008473ffffffffffffffffffffffffffffffffffffffff1673ffffffffffffffffffffffffffffffffffffffff168152602001908152602001600020600082825461136b9190612d06565b92505081905550816002600083815260200190815260200160002060006101000a81548173ffffffffffffffffffffffffffffffffffffffff021916908373ffffffffffffffffffffffffffffffffffffffff160217905550808273ffffffffffffffffffffffffffffffffffffffff16600073ffffffffffffffffffffffffffffffffffffffff167fddf252ad1be2c89b69c2b068fc378daa952ba7f163c4a11628f55a4df523b3ef60405160405180910390a45050565b8173ffffffffffffffffffffffffffffffffffffffff168373ffffffffffffffffffffffffffffffffffffffff161415611493576040517f08c379a000000000000000000000000000000000000000000000000000000000815260040161148a90612aa7565b60405180910390fd5b80600560008573ffffffffffffffffffffffffffffffffffffffff1673ffffffffffffffffffffffffffffffffffffffff16815260200190815260200160002060008473ffffffffffffffffffffffffffffffffffffffff1673ffffffffffffffffffffffffffffffffffffffff16815260200190815260200160002060006101000a81548160ff0219169083151502179055508173ffffffffffffffffffffffffffffffffffffffff168373ffffffffffffffffffffffffffffffffffffffff167f17307eab39ab6107e8899845ad3d59bd9653f200f220920489ca2b5937696c318360405161158491906129ea565b60405180910390a3505050565b61159c848484610fed565b6115a8848484846118a3565b6115e7576040517f08c379a00000000000000000000000000000000000000000000000000000000081526004016115de90612a47565b60405180910390fd5b50505050565b606060405180602001604052806000815250905090565b6060600082141561164c576040518060400160405280600181526020017f300000000000000000000000000000000000000000000000000000000000000081525090506117ac565b600082905060005b6000821461167e57808061166790612ea9565b915050600a826116779190612d5c565b9150611654565b60008167ffffffffffffffff8111156116c0577f4e487b7100000000000000000000000000000000000000000000000000000000600052604160045260246000fd5b6040519080825280601f01601f1916602001820160405280156116f25781602001600182028036833780820191505090505b5090505b600085146117a55760018261170b9190612d8d565b9150600a8561171a9190612ef2565b60306117269190612d06565b60f81b818381518110611762577f4e487b7100000000000000000000000000000000000000000000000000000000600052603260045260246000fd5b60200101907effffffffffffffffffffffffffffffffffffffffffffffffffffffffffffff1916908160001a905350600a8561179e9190612d5c565b94506116f6565b8093505050505b919050565b60007f80ac58cd000000000000000000000000000000000000000000000000000000007bffffffffffffffffffffffffffffffffffffffffffffffffffffffff1916827bffffffffffffffffffffffffffffffffffffffffffffffffffffffff1916148061187c57507f5b5e139f000000000000000000000000000000000000000000000000000000007bffffffffffffffffffffffffffffffffffffffffffffffffffffffff1916827bffffffffffffffffffffffffffffffffffffffffffffffffffffffff1916145b8061188c575061188b82611a3a565b5b9050919050565b61189e838383611aa4565b505050565b60006118c48473ffffffffffffffffffffffffffffffffffffffff16611bb8565b15611a2d578373ffffffffffffffffffffffffffffffffffffffff1663150b7a026118ed610e4e565b8786866040518563ffffffff1660e01b815260040161190f949392919061299e565b602060405180830381600087803b15801561192957600080fd5b505af192505050801561195a57506040513d601f19601f8201168201806040525081019061195791906121e9565b60015b6119dd573d806000811461198a576040519150601f19603f3d011682016040523d82523d6000602084013e61198f565b606091505b506000815114156119d5576040517f08c379a00000000000000000000000000000000000000000000000000000000081526004016119cc90612a47565b60405180910390fd5b805181602001fd5b63150b7a0260e01b7bffffffffffffffffffffffffffffffffffffffffffffffffffffffff1916817bffffffffffffffffffffffffffffffffffffffffffffffffffffffff191614915050611a32565b600190505b949350505050565b60007f01ffc9a7000000000000000000000000000000000000000000000000000000007bffffffffffffffffffffffffffffffffffffffffffffffffffffffff1916827bffffffffffffffffffffffffffffffffffffffffffffffffffffffff1916149050919050565b611aaf838383611bcb565b600073ffffffffffffffffffffffffffffffffffffffff168373ffffffffffffffffffffffffffffffffffffffff161415611af257611aed81611bd0565b611b31565b8173ffffffffffffffffffffffffffffffffffffffff168373ffffffffffffffffffffffffffffffffffffffff1614611b3057611b2f8382611c19565b5b5b600073ffffffffffffffffffffffffffffffffffffffff168273ffffffffffffffffffffffffffffffffffffffff161415611b7457611b6f81611d86565b611bb3565b8273ffffffffffffffffffffffffffffffffffffffff168273ffffffffffffffffffffffffffffffffffffffff1614611bb257611bb18282611ec9565b5b5b505050565b600080823b905060008111915050919050565b505050565b6008805490506009600083815260200190815260200160002081905550600881908060018154018082558091505060019003906000526020600020016000909190919091505550565b60006001611c268461097d565b611c309190612d8d565b9050600060076000848152602001908152602001600020549050818114611d15576000600660008673ffffffffffffffffffffffffffffffffffffffff1673ffffffffffffffffffffffffffffffffffffffff168152602001908152602001600020600084815260200190815260200160002054905080600660008773ffffffffffffffffffffffffffffffffffffffff1673ffffffffffffffffffffffffffffffffffffffff168152602001908152602001600020600084815260200190815260200160002081905550816007600083815260200190815260200160002081905550505b6007600084815260200190815260200160002060009055600660008573ffffffffffffffffffffffffffffffffffffffff1673ffffffffffffffffffffffffffffffffffffffff16815260200190815260200160002060008381526020019081526020016000206000905550505050565b60006001600880549050611d9a9190612d8d565b9050600060096000848152602001908152602001600020549050600060088381548110611df0577f4e487b7100000000000000000000000000000000000000000000000000000000600052603260045260246000fd5b906000526020600020015490508060088381548110611e38577f4e487b7100000000000000000000000000000000000000000000000000000000600052603260045260246000fd5b906000526020600020018190555081600960008381526020019081526020016000208190555060096000858152602001908152602001600020600090556008805480611ead577f4e487b7100000000000000000000000000000000000000000000000000000000600052603160045260246000fd5b6001900381819060005260206000200160009055905550505050565b6000611ed48361097d565b905081600660008573ffffffffffffffffffffffffffffffffffffffff1673ffffffffffffffffffffffffffffffffffffffff168152602001908152602001600020600083815260200190815260200160002081905550806007600084815260200190815260200160002081905550505050565b6000611f5b611f5684612c93565b612c62565b905082815260208101848484011115611f7357600080fd5b611f7e848285612e35565b509392505050565b600081359050611f9581612ff0565b92915050565b600081359050611faa81613007565b92915050565b600081359050611fbf8161301e565b92915050565b600081519050611fd48161301e565b92915050565b600082601f830112611feb57600080fd5b8135611ffb848260208601611f48565b91505092915050565b60008135905061201381613035565b92915050565b60006020828403121561202b57600080fd5b600061203984828501611f86565b91505092915050565b6000806040838503121561205557600080fd5b600061206385828601611f86565b925050602061207485828601611f86565b9150509250929050565b60008060006060848603121561209357600080fd5b60006120a186828701611f86565b93505060206120b286828701611f86565b92505060406120c386828701612004565b9150509250925092565b600080600080608085870312156120e357600080fd5b60006120f187828801611f86565b945050602061210287828801611f86565b935050604061211387828801612004565b925050606085013567ffffffffffffffff81111561213057600080fd5b61213c87828801611fda565b91505092959194509250565b6000806040838503121561215b57600080fd5b600061216985828601611f86565b925050602061217a85828601611f9b565b9150509250929050565b6000806040838503121561219757600080fd5b60006121a585828601611f86565b92505060206121b685828601612004565b9150509250929050565b6000602082840312156121d257600080fd5b60006121e084828501611fb0565b91505092915050565b6000602082840312156121fb57600080fd5b600061220984828501611fc5565b91505092915050565b60006020828403121561222457600080fd5b600061223284828501612004565b91505092915050565b61224481612dc1565b82525050565b61225381612dd3565b82525050565b600061226482612cc3565b61226e8185612cd9565b935061227e818560208601612e44565b61228781612fdf565b840191505092915050565b600061229d82612cce565b6122a78185612cea565b93506122b7818560208601612e44565b6122c081612fdf565b840191505092915050565b60006122d682612cce565b6122e08185612cfb565b93506122f0818560208601612e44565b80840191505092915050565b6000612309602b83612cea565b91507f455243373231456e756d657261626c653a206f776e657220696e646578206f7560008301527f74206f6620626f756e64730000000000000000000000000000000000000000006020830152604082019050919050565b600061236f603283612cea565b91507f4552433732313a207472616e7366657220746f206e6f6e20455243373231526560008301527f63656976657220696d706c656d656e74657200000000000000000000000000006020830152604082019050919050565b60006123d5601c83612cea565b91507f4552433732313a20746f6b656e20616c7265616479206d696e746564000000006000830152602082019050919050565b6000612415602483612cea565b91507f4552433732313a207472616e7366657220746f20746865207a65726f2061646460008301527f72657373000000000000000000000000000000000000000000000000000000006020830152604082019050919050565b600061247b601983612cea565b91507f4552433732313a20617070726f766520746f2063616c6c6572000000000000006000830152602082019050919050565b60006124bb602c83612cea565b91507f4552433732313a206f70657261746f7220717565727920666f72206e6f6e657860008301527f697374656e7420746f6b656e00000000000000000000000000000000000000006020830152604082019050919050565b6000612521603883612cea565b91507f4552433732313a20617070726f76652063616c6c6572206973206e6f74206f7760008301527f6e6572206e6f7220617070726f76656420666f7220616c6c00000000000000006020830152604082019050919050565b6000612587602a83612cea565b91507f4552433732313a2062616c616e636520717565727920666f7220746865207a6560008301527f726f2061646472657373000000000000000000000000000000000000000000006020830152604082019050919050565b60006125ed602983612cea565b91507f4552433732313a206f776e657220717565727920666f72206e6f6e657869737460008301527f656e7420746f6b656e00000000000000000000000000000000000000000000006020830152604082019050919050565b6000612653602083612cea565b91507f4552433732313a206d696e7420746f20746865207a65726f20616464726573736000830152602082019050919050565b6000612693602c83612cea565b91507f4552433732313a20617070726f76656420717565727920666f72206e6f6e657860008301527f697374656e7420746f6b656e00000000000000000000000000000000000000006020830152604082019050919050565b60006126f9602a83612cea565b91507f4572726f722c206e6f7420656e6f756768206574682073656e7420746f20707560008301527f726368617365204e4654000000000000000000000000000000000000000000006020830152604082019050919050565b600061275f602983612cea565b91507f4552433732313a207472616e73666572206f6620746f6b656e2074686174206960008301527f73206e6f74206f776e00000000000000000000000000000000000000000000006020830152604082019050919050565b60006127c5602f83612cea565b91507f4552433732314d657461646174613a2055524920717565727920666f72206e6f60008301527f6e6578697374656e7420746f6b656e00000000000000000000000000000000006020830152604082019050919050565b600061282b602183612cea565b91507f4552433732313a20617070726f76616c20746f2063757272656e74206f776e6560008301527f72000000000000000000000000000000000000000000000000000000000000006020830152604082019050919050565b6000612891603183612cea565b91507f4552433732313a207472616e736665722063616c6c6572206973206e6f74206f60008301527f776e6572206e6f7220617070726f7665640000000000000000000000000000006020830152604082019050919050565b60006128f7602c83612cea565b91507f455243373231456e756d657261626c653a20676c6f62616c20696e646578206f60008301527f7574206f6620626f756e647300000000000000000000000000000000000000006020830152604082019050919050565b61295981612e2b565b82525050565b600061296b82856122cb565b915061297782846122cb565b91508190509392505050565b6000602082019050612998600083018461223b565b92915050565b60006080820190506129b3600083018761223b565b6129c0602083018661223b565b6129cd6040830185612950565b81810360608301526129df8184612259565b905095945050505050565b60006020820190506129ff600083018461224a565b92915050565b60006020820190508181036000830152612a1f8184612292565b905092915050565b60006020820190508181036000830152612a40816122fc565b9050919050565b60006020820190508181036000830152612a6081612362565b9050919050565b60006020820190508181036000830152612a80816123c8565b9050919050565b60006020820190508181036000830152612aa081612408565b9050919050565b60006020820190508181036000830152612ac08161246e565b9050919050565b60006020820190508181036000830152612ae0816124ae565b9050919050565b60006020820190508181036000830152612b0081612514565b9050919050565b60006020820190508181036000830152612b208161257a565b9050919050565b60006020820190508181036000830152612b40816125e0565b9050919050565b60006020820190508181036000830152612b6081612646565b9050919050565b60006020820190508181036000830152612b8081612686565b9050919050565b60006020820190508181036000830152612ba0816126ec565b9050919050565b60006020820190508181036000830152612bc081612752565b9050919050565b60006020820190508181036000830152612be0816127b8565b9050919050565b60006020820190508181036000830152612c008161281e565b9050919050565b60006020820190508181036000830152612c2081612884565b9050919050565b60006020820190508181036000830152612c40816128ea565b9050919050565b6000602082019050612c5c6000830184612950565b92915050565b6000604051905081810181811067ffffffffffffffff82111715612c8957612c88612fb0565b5b8060405250919050565b600067ffffffffffffffff821115612cae57612cad612fb0565b5b601f19601f8301169050602081019050919050565b600081519050919050565b600081519050919050565b600082825260208201905092915050565b600082825260208201905092915050565b600081905092915050565b6000612d1182612e2b565b9150612d1c83612e2b565b9250827fffffffffffffffffffffffffffffffffffffffffffffffffffffffffffffffff03821115612d5157612d50612f23565b5b828201905092915050565b6000612d6782612e2b565b9150612d7283612e2b565b925082612d8257612d81612f52565b5b828204905092915050565b6000612d9882612e2b565b9150612da383612e2b565b925082821015612db657612db5612f23565b5b828203905092915050565b6000612dcc82612e0b565b9050919050565b60008115159050919050565b60007fffffffff0000000000000000000000000000000000000000000000000000000082169050919050565b600073ffffffffffffffffffffffffffffffffffffffff82169050919050565b6000819050919050565b82818337600083830152505050565b60005b83811015612e62578082015181840152602081019050612e47565b83811115612e71576000848401525b50505050565b60006002820490506001821680612e8f57607f821691505b60208210811415612ea357612ea2612f81565b5b50919050565b6000612eb482612e2b565b91507fffffffffffffffffffffffffffffffffffffffffffffffffffffffffffffffff821415612ee757612ee6612f23565b5b600182019050919050565b6000612efd82612e2b565b9150612f0883612e2b565b925082612f1857612f17612f52565b5b828206905092915050565b7f4e487b7100000000000000000000000000000000000000000000000000000000600052601160045260246000fd5b7f4e487b7100000000000000000000000000000000000000000000000000000000600052601260045260246000fd5b7f4e487b7100000000000000000000000000000000000000000000000000000000600052602260045260246000fd5b7f4e487b7100000000000000000000000000000000000000000000000000000000600052604160045260246000fd5b6000601f19601f8301169050919050565b612ff981612dc1565b811461300457600080fd5b50565b61301081612dd3565b811461301b57600080fd5b50565b61302781612ddf565b811461303257600080fd5b50565b61303e81612e2b565b811461304957600080fd5b5056fea2646970667358221220bcd78ffc60075c38ef480cb6c04dcee0a86671e7715d562c7ffa2f91ebf5c45664736f6c63430008000033",
  "immutableReferences": {},
  "source": "pragma solidity ^0.8.0;\r\n\r\nimport \"@openzeppelin/contracts/token/ERC721/ERC721.sol\";\r\nimport \"@openzeppelin/contracts/token/ERC721/extensions/ERC721Enumerable.sol\";\r\n\r\ncontract StickMan is ERC721, ERC721Enumerable {\r\n\r\n    uint[] public StickMans;\r\n    mapping(uint => bool) _stickExists;\r\n\r\n    constructor() ERC721(\"StickMan\",\"STKM\") {\r\n        \r\n    }\r\n\r\n    function _beforeTokenTransfer(address from, address to, uint256 tokenId) internal override(ERC721, ERC721Enumerable) {\r\n        super._beforeTokenTransfer(from,to,tokenId);\r\n    }\r\n    \r\n    function supportsInterface(bytes4 interfaceId) public view override (ERC721, ERC721Enumerable) returns (bool) {\r\n        return super.supportsInterface(interfaceId);\r\n    }\r\n\r\n    function totalSupply() public view override returns(uint256) {\r\n        return uint256(StickMans.length);\r\n    }\r\n\r\n    function mint(uint _dna) public payable { //gonna let whoever wants one have a stickman, this could be restricted only to a minter address though\r\n        require(!_stickExists[_dna]);\r\n        require(msg.value >= 0.001 ether, \"Error, not enough eth sent to purchase NFT\");\r\n        StickMans.push(_dna);\r\n        uint _id = StickMans.length - 1;\r\n        _mint(msg.sender, _id);\r\n        _stickExists[_dna] = true;\r\n    }\r\n\r\n}",
  "sourcePath": "D:\\Projects\\nft_vendor\\vendor\\src\\contracts\\StickMan.sol",
  "compiler": {
    "name": "solc",
    "version": "0.8.0+commit.c7dfd78e.Emscripten.clang"
  },
  "schemaVersion": "3.4.4",
  "updatedAt": "2022-01-26T03:54:10.899Z",
  "networkType": "ethereum",
  "devdoc": {
    "kind": "dev",
    "methods": {
      "approve(address,uint256)": {
        "details": "See {IERC721-approve}."
      },
      "balanceOf(address)": {
        "details": "See {IERC721-balanceOf}."
      },
      "getApproved(uint256)": {
        "details": "See {IERC721-getApproved}."
      },
      "isApprovedForAll(address,address)": {
        "details": "See {IERC721-isApprovedForAll}."
      },
      "name()": {
        "details": "See {IERC721Metadata-name}."
      },
      "ownerOf(uint256)": {
        "details": "See {IERC721-ownerOf}."
      },
      "safeTransferFrom(address,address,uint256)": {
        "details": "See {IERC721-safeTransferFrom}."
      },
      "safeTransferFrom(address,address,uint256,bytes)": {
        "details": "See {IERC721-safeTransferFrom}."
      },
      "setApprovalForAll(address,bool)": {
        "details": "See {IERC721-setApprovalForAll}."
      },
      "symbol()": {
        "details": "See {IERC721Metadata-symbol}."
      },
      "tokenByIndex(uint256)": {
        "details": "See {IERC721Enumerable-tokenByIndex}."
      },
      "tokenOfOwnerByIndex(address,uint256)": {
        "details": "See {IERC721Enumerable-tokenOfOwnerByIndex}."
      },
      "tokenURI(uint256)": {
        "details": "See {IERC721Metadata-tokenURI}."
      },
      "totalSupply()": {
        "details": "See {IERC721Enumerable-totalSupply}."
      },
      "transferFrom(address,address,uint256)": {
        "details": "See {IERC721-transferFrom}."
      }
    },
    "version": 1
  },
  "userdoc": {
    "kind": "user",
    "methods": {},
    "version": 1
  }
}