{
  "contractName": "StickMan",
  "abi": [
    {
      "inputs": [],
      "stateMutability": "nonpayable",
      "type": "constructor"
    },
    {
      "anonymous": false,
      "inputs": [
        {
          "indexed": true,
          "internalType": "address",
          "name": "owner",
          "type": "address"
        },
        {
          "indexed": true,
          "internalType": "address",
          "name": "approved",
          "type": "address"
        },
        {
          "indexed": true,
          "internalType": "uint256",
          "name": "tokenId",
          "type": "uint256"
        }
      ],
      "name": "Approval",
      "type": "event"
    },
    {
      "anonymous": false,
      "inputs": [
        {
          "indexed": true,
          "internalType": "address",
          "name": "owner",
          "type": "address"
        },
        {
          "indexed": true,
          "internalType": "address",
          "name": "operator",
          "type": "address"
        },
        {
          "indexed": false,
          "internalType": "bool",
          "name": "approved",
          "type": "bool"
        }
      ],
      "name": "ApprovalForAll",
      "type": "event"
    },
    {
      "anonymous": false,
      "inputs": [
        {
          "indexed": true,
          "internalType": "address",
          "name": "from",
          "type": "address"
        },
        {
          "indexed": true,
          "internalType": "address",
          "name": "to",
          "type": "address"
        },
        {
          "indexed": true,
          "internalType": "uint256",
          "name": "tokenId",
          "type": "uint256"
        }
      ],
      "name": "Transfer",
      "type": "event"
    },
    {
      "inputs": [
        {
          "internalType": "uint256",
          "name": "",
          "type": "uint256"
        }
      ],
      "name": "StickMans",
      "outputs": [
        {
          "internalType": "string",
          "name": "",
          "type": "string"
        }
      ],
      "stateMutability": "view",
      "type": "function",
      "constant": true
    },
    {
      "inputs": [
        {
          "internalType": "address",
          "name": "to",
          "type": "address"
        },
        {
          "internalType": "uint256",
          "name": "tokenId",
          "type": "uint256"
        }
      ],
      "name": "approve",
      "outputs": [],
      "stateMutability": "nonpayable",
      "type": "function"
    },
    {
      "inputs": [
        {
          "internalType": "address",
          "name": "owner",
          "type": "address"
        }
      ],
      "name": "balanceOf",
      "outputs": [
        {
          "internalType": "uint256",
          "name": "",
          "type": "uint256"
        }
      ],
      "stateMutability": "view",
      "type": "function",
      "constant": true
    },
    {
      "inputs": [
        {
          "internalType": "uint256",
          "name": "tokenId",
          "type": "uint256"
        }
      ],
      "name": "getApproved",
      "outputs": [
        {
          "internalType": "address",
          "name": "",
          "type": "address"
        }
      ],
      "stateMutability": "view",
      "type": "function",
      "constant": true
    },
    {
      "inputs": [
        {
          "internalType": "address",
          "name": "owner",
          "type": "address"
        },
        {
          "internalType": "address",
          "name": "operator",
          "type": "address"
        }
      ],
      "name": "isApprovedForAll",
      "outputs": [
        {
          "internalType": "bool",
          "name": "",
          "type": "bool"
        }
      ],
      "stateMutability": "view",
      "type": "function",
      "constant": true
    },
    {
      "inputs": [],
      "name": "name",
      "outputs": [
        {
          "internalType": "string",
          "name": "",
          "type": "string"
        }
      ],
      "stateMutability": "view",
      "type": "function",
      "constant": true
    },
    {
      "inputs": [
        {
          "internalType": "uint256",
          "name": "tokenId",
          "type": "uint256"
        }
      ],
      "name": "ownerOf",
      "outputs": [
        {
          "internalType": "address",
          "name": "",
          "type": "address"
        }
      ],
      "stateMutability": "view",
      "type": "function",
      "constant": true
    },
    {
      "inputs": [
        {
          "internalType": "address",
          "name": "from",
          "type": "address"
        },
        {
          "internalType": "address",
          "name": "to",
          "type": "address"
        },
        {
          "internalType": "uint256",
          "name": "tokenId",
          "type": "uint256"
        }
      ],
      "name": "safeTransferFrom",
      "outputs": [],
      "stateMutability": "nonpayable",
      "type": "function"
    },
    {
      "inputs": [
        {
          "internalType": "address",
          "name": "from",
          "type": "address"
        },
        {
          "internalType": "address",
          "name": "to",
          "type": "address"
        },
        {
          "internalType": "uint256",
          "name": "tokenId",
          "type": "uint256"
        },
        {
          "internalType": "bytes",
          "name": "_data",
          "type": "bytes"
        }
      ],
      "name": "safeTransferFrom",
      "outputs": [],
      "stateMutability": "nonpayable",
      "type": "function"
    },
    {
      "inputs": [
        {
          "internalType": "address",
          "name": "operator",
          "type": "address"
        },
        {
          "internalType": "bool",
          "name": "approved",
          "type": "bool"
        }
      ],
      "name": "setApprovalForAll",
      "outputs": [],
      "stateMutability": "nonpayable",
      "type": "function"
    },
    {
      "inputs": [
        {
          "internalType": "bytes4",
          "name": "interfaceId",
          "type": "bytes4"
        }
      ],
      "name": "supportsInterface",
      "outputs": [
        {
          "internalType": "bool",
          "name": "",
          "type": "bool"
        }
      ],
      "stateMutability": "view",
      "type": "function",
      "constant": true
    },
    {
      "inputs": [],
      "name": "symbol",
      "outputs": [
        {
          "internalType": "string",
          "name": "",
          "type": "string"
        }
      ],
      "stateMutability": "view",
      "type": "function",
      "constant": true
    },
    {
      "inputs": [
        {
          "internalType": "uint256",
          "name": "tokenId",
          "type": "uint256"
        }
      ],
      "name": "tokenURI",
      "outputs": [
        {
          "internalType": "string",
          "name": "",
          "type": "string"
        }
      ],
      "stateMutability": "view",
      "type": "function",
      "constant": true
    },
    {
      "inputs": [
        {
          "internalType": "address",
          "name": "from",
          "type": "address"
        },
        {
          "internalType": "address",
          "name": "to",
          "type": "address"
        },
        {
          "internalType": "uint256",
          "name": "tokenId",
          "type": "uint256"
        }
      ],
      "name": "transferFrom",
      "outputs": [],
      "stateMutability": "nonpayable",
      "type": "function"
    },
    {
      "inputs": [
        {
          "internalType": "string",
          "name": "_dna",
          "type": "string"
        }
      ],
      "name": "mint",
      "outputs": [],
      "stateMutability": "nonpayable",
      "type": "function"
    }
  ],
  "bytecode": "0x60806040523480156200001157600080fd5b506040518060400160405280600881526020017f537469636b4d616e0000000000000000000000000000000000000000000000008152506040518060400160405280600481526020017f53544b4d00000000000000000000000000000000000000000000000000000000815250816000908051906020019062000096929190620000b8565b508060019080519060200190620000af929190620000b8565b505050620001cd565b828054620000c69062000168565b90600052602060002090601f016020900481019282620000ea576000855562000136565b82601f106200010557805160ff191683800117855562000136565b8280016001018555821562000136579182015b828111156200013557825182559160200191906001019062000118565b5b50905062000145919062000149565b5090565b5b80821115620001645760008160009055506001016200014a565b5090565b600060028204905060018216806200018157607f821691505b602082108114156200019857620001976200019e565b5b50919050565b7f4e487b7100000000000000000000000000000000000000000000000000000000600052602260045260246000fd5b6128c780620001dd6000396000f3fe608060405234801561001057600080fd5b50600436106100f55760003560e01c80636352211e11610097578063b88d4fde11610066578063b88d4fde14610296578063c87b56dd146102b2578063d85d3d27146102e2578063e985e9c5146102fe576100f5565b80636352211e146101fc57806370a082311461022c57806395d89b411461025c578063a22cb4651461027a576100f5565b8063081812fc116100d3578063081812fc14610178578063095ea7b3146101a857806323b872dd146101c457806342842e0e146101e0576100f5565b806301ffc9a7146100fa5780630457420f1461012a57806306fdde031461015a575b600080fd5b610114600480360381019061010f9190611b0f565b61032e565b604051610121919061225f565b60405180910390f35b610144600480360381019061013f9190611ba2565b610410565b604051610151919061227a565b60405180910390f35b6101626104bc565b60405161016f919061227a565b60405180910390f35b610192600480360381019061018d9190611ba2565b61054e565b60405161019f91906121f8565b60405180910390f35b6101c260048036038101906101bd9190611ad3565b6105d3565b005b6101de60048036038101906101d991906119cd565b6106eb565b005b6101fa60048036038101906101f591906119cd565b61074b565b005b61021660048036038101906102119190611ba2565b61076b565b60405161022391906121f8565b60405180910390f35b61024660048036038101906102419190611968565b61081d565b604051610253919061245c565b60405180910390f35b6102646108d5565b604051610271919061227a565b60405180910390f35b610294600480360381019061028f9190611a97565b610967565b005b6102b060048036038101906102ab9190611a1c565b61097d565b005b6102cc60048036038101906102c79190611ba2565b6109df565b6040516102d9919061227a565b60405180910390f35b6102fc60048036038101906102f79190611b61565b610a86565b005b61031860048036038101906103139190611991565b610b1d565b604051610325919061225f565b60405180910390f35b60007f80ac58cd000000000000000000000000000000000000000000000000000000007bffffffffffffffffffffffffffffffffffffffffffffffffffffffff1916827bffffffffffffffffffffffffffffffffffffffffffffffffffffffff191614806103f957507f5b5e139f000000000000000000000000000000000000000000000000000000007bffffffffffffffffffffffffffffffffffffffffffffffffffffffff1916827bffffffffffffffffffffffffffffffffffffffffffffffffffffffff1916145b80610409575061040882610bb1565b5b9050919050565b6006818154811061042057600080fd5b90600052602060002001600091509050805461043b906126bc565b80601f0160208091040260200160405190810160405280929190818152602001828054610467906126bc565b80156104b45780601f10610489576101008083540402835291602001916104b4565b820191906000526020600020905b81548152906001019060200180831161049757829003601f168201915b505050505081565b6060600080546104cb906126bc565b80601f01602080910402602001604051908101604052809291908181526020018280546104f7906126bc565b80156105445780601f1061051957610100808354040283529160200191610544565b820191906000526020600020905b81548152906001019060200180831161052757829003601f168201915b5050505050905090565b600061055982610c1b565b610598576040517f08c379a000000000000000000000000000000000000000000000000000000000815260040161058f906123bc565b60405180910390fd5b6004600083815260200190815260200160002060009054906101000a900473ffffffffffffffffffffffffffffffffffffffff169050919050565b60006105de8261076b565b90508073ffffffffffffffffffffffffffffffffffffffff168373ffffffffffffffffffffffffffffffffffffffff16141561064f576040517f08c379a00000000000000000000000000000000000000000000000000000000081526004016106469061241c565b60405180910390fd5b8073ffffffffffffffffffffffffffffffffffffffff1661066e610c87565b73ffffffffffffffffffffffffffffffffffffffff16148061069d575061069c81610697610c87565b610b1d565b5b6106dc576040517f08c379a00000000000000000000000000000000000000000000000000000000081526004016106d39061233c565b60405180910390fd5b6106e68383610c8f565b505050565b6106fc6106f6610c87565b82610d48565b61073b576040517f08c379a00000000000000000000000000000000000000000000000000000000081526004016107329061243c565b60405180910390fd5b610746838383610e26565b505050565b6107668383836040518060200160405280600081525061097d565b505050565b6000806002600084815260200190815260200160002060009054906101000a900473ffffffffffffffffffffffffffffffffffffffff169050600073ffffffffffffffffffffffffffffffffffffffff168173ffffffffffffffffffffffffffffffffffffffff161415610814576040517f08c379a000000000000000000000000000000000000000000000000000000000815260040161080b9061237c565b60405180910390fd5b80915050919050565b60008073ffffffffffffffffffffffffffffffffffffffff168273ffffffffffffffffffffffffffffffffffffffff16141561088e576040517f08c379a00000000000000000000000000000000000000000000000000000000081526004016108859061235c565b60405180910390fd5b600360008373ffffffffffffffffffffffffffffffffffffffff1673ffffffffffffffffffffffffffffffffffffffff168152602001908152602001600020549050919050565b6060600180546108e4906126bc565b80601f0160208091040260200160405190810160405280929190818152602001828054610910906126bc565b801561095d5780601f106109325761010080835404028352916020019161095d565b820191906000526020600020905b81548152906001019060200180831161094057829003601f168201915b5050505050905090565b610979610972610c87565b8383611082565b5050565b61098e610988610c87565b83610d48565b6109cd576040517f08c379a00000000000000000000000000000000000000000000000000000000081526004016109c49061243c565b60405180910390fd5b6109d9848484846111ef565b50505050565b60606109ea82610c1b565b610a29576040517f08c379a0000000000000000000000000000000000000000000000000000000008152600401610a20906123fc565b60405180910390fd5b6000610a3361124b565b90506000815111610a535760405180602001604052806000815250610a7e565b80610a5d84611262565b604051602001610a6e9291906121d4565b6040516020818303038152906040525b915050919050565b600681908060018154018082558091505060019003906000526020600020016000909190919091509080519060200190610ac192919061178c565b5060006001600680549050610ad691906125d2565b9050610ae2338261140f565b6001600783604051610af491906121bd565b908152602001604051809103902060006101000a81548160ff0219169083151502179055505050565b6000600560008473ffffffffffffffffffffffffffffffffffffffff1673ffffffffffffffffffffffffffffffffffffffff16815260200190815260200160002060008373ffffffffffffffffffffffffffffffffffffffff1673ffffffffffffffffffffffffffffffffffffffff16815260200190815260200160002060009054906101000a900460ff16905092915050565b60007f01ffc9a7000000000000000000000000000000000000000000000000000000007bffffffffffffffffffffffffffffffffffffffffffffffffffffffff1916827bffffffffffffffffffffffffffffffffffffffffffffffffffffffff1916149050919050565b60008073ffffffffffffffffffffffffffffffffffffffff166002600084815260200190815260200160002060009054906101000a900473ffffffffffffffffffffffffffffffffffffffff1673ffffffffffffffffffffffffffffffffffffffff1614159050919050565b600033905090565b816004600083815260200190815260200160002060006101000a81548173ffffffffffffffffffffffffffffffffffffffff021916908373ffffffffffffffffffffffffffffffffffffffff160217905550808273ffffffffffffffffffffffffffffffffffffffff16610d028361076b565b73ffffffffffffffffffffffffffffffffffffffff167f8c5be1e5ebec7d5bd14f71427d1e84f3dd0314c0f7b2291e5b200ac8c7c3b92560405160405180910390a45050565b6000610d5382610c1b565b610d92576040517f08c379a0000000000000000000000000000000000000000000000000000000008152600401610d899061231c565b60405180910390fd5b6000610d9d8361076b565b90508073ffffffffffffffffffffffffffffffffffffffff168473ffffffffffffffffffffffffffffffffffffffff161480610e0c57508373ffffffffffffffffffffffffffffffffffffffff16610df48461054e565b73ffffffffffffffffffffffffffffffffffffffff16145b80610e1d5750610e1c8185610b1d565b5b91505092915050565b8273ffffffffffffffffffffffffffffffffffffffff16610e468261076b565b73ffffffffffffffffffffffffffffffffffffffff1614610e9c576040517f08c379a0000000000000000000000000000000000000000000000000000000008152600401610e93906123dc565b60405180910390fd5b600073ffffffffffffffffffffffffffffffffffffffff168273ffffffffffffffffffffffffffffffffffffffff161415610f0c576040517f08c379a0000000000000000000000000000000000000000000000000000000008152600401610f03906122dc565b60405180910390fd5b610f178383836115dd565b610f22600082610c8f565b6001600360008573ffffffffffffffffffffffffffffffffffffffff1673ffffffffffffffffffffffffffffffffffffffff1681526020019081526020016000206000828254610f7291906125d2565b925050819055506001600360008473ffffffffffffffffffffffffffffffffffffffff1673ffffffffffffffffffffffffffffffffffffffff1681526020019081526020016000206000828254610fc9919061254b565b92505081905550816002600083815260200190815260200160002060006101000a81548173ffffffffffffffffffffffffffffffffffffffff021916908373ffffffffffffffffffffffffffffffffffffffff160217905550808273ffffffffffffffffffffffffffffffffffffffff168473ffffffffffffffffffffffffffffffffffffffff167fddf252ad1be2c89b69c2b068fc378daa952ba7f163c4a11628f55a4df523b3ef60405160405180910390a4505050565b8173ffffffffffffffffffffffffffffffffffffffff168373ffffffffffffffffffffffffffffffffffffffff1614156110f1576040517f08c379a00000000000000000000000000000000000000000000000000000000081526004016110e8906122fc565b60405180910390fd5b80600560008573ffffffffffffffffffffffffffffffffffffffff1673ffffffffffffffffffffffffffffffffffffffff16815260200190815260200160002060008473ffffffffffffffffffffffffffffffffffffffff1673ffffffffffffffffffffffffffffffffffffffff16815260200190815260200160002060006101000a81548160ff0219169083151502179055508173ffffffffffffffffffffffffffffffffffffffff168373ffffffffffffffffffffffffffffffffffffffff167f17307eab39ab6107e8899845ad3d59bd9653f200f220920489ca2b5937696c31836040516111e2919061225f565b60405180910390a3505050565b6111fa848484610e26565b611206848484846115e2565b611245576040517f08c379a000000000000000000000000000000000000000000000000000000000815260040161123c9061229c565b60405180910390fd5b50505050565b606060405180602001604052806000815250905090565b606060008214156112aa576040518060400160405280600181526020017f3000000000000000000000000000000000000000000000000000000000000000815250905061140a565b600082905060005b600082146112dc5780806112c5906126ee565b915050600a826112d591906125a1565b91506112b2565b60008167ffffffffffffffff81111561131e577f4e487b7100000000000000000000000000000000000000000000000000000000600052604160045260246000fd5b6040519080825280601f01601f1916602001820160405280156113505781602001600182028036833780820191505090505b5090505b600085146114035760018261136991906125d2565b9150600a856113789190612737565b6030611384919061254b565b60f81b8183815181106113c0577f4e487b7100000000000000000000000000000000000000000000000000000000600052603260045260246000fd5b60200101907effffffffffffffffffffffffffffffffffffffffffffffffffffffffffffff1916908160001a905350600a856113fc91906125a1565b9450611354565b8093505050505b919050565b600073ffffffffffffffffffffffffffffffffffffffff168273ffffffffffffffffffffffffffffffffffffffff16141561147f576040517f08c379a00000000000000000000000000000000000000000000000000000000081526004016114769061239c565b60405180910390fd5b61148881610c1b565b156114c8576040517f08c379a00000000000000000000000000000000000000000000000000000000081526004016114bf906122bc565b60405180910390fd5b6114d4600083836115dd565b6001600360008473ffffffffffffffffffffffffffffffffffffffff1673ffffffffffffffffffffffffffffffffffffffff1681526020019081526020016000206000828254611524919061254b565b92505081905550816002600083815260200190815260200160002060006101000a81548173ffffffffffffffffffffffffffffffffffffffff021916908373ffffffffffffffffffffffffffffffffffffffff160217905550808273ffffffffffffffffffffffffffffffffffffffff16600073ffffffffffffffffffffffffffffffffffffffff167fddf252ad1be2c89b69c2b068fc378daa952ba7f163c4a11628f55a4df523b3ef60405160405180910390a45050565b505050565b60006116038473ffffffffffffffffffffffffffffffffffffffff16611779565b1561176c578373ffffffffffffffffffffffffffffffffffffffff1663150b7a0261162c610c87565b8786866040518563ffffffff1660e01b815260040161164e9493929190612213565b602060405180830381600087803b15801561166857600080fd5b505af192505050801561169957506040513d601f19601f820116820180604052508101906116969190611b38565b60015b61171c573d80600081146116c9576040519150601f19603f3d011682016040523d82523d6000602084013e6116ce565b606091505b50600081511415611714576040517f08c379a000000000000000000000000000000000000000000000000000000000815260040161170b9061229c565b60405180910390fd5b805181602001fd5b63150b7a0260e01b7bffffffffffffffffffffffffffffffffffffffffffffffffffffffff1916817bffffffffffffffffffffffffffffffffffffffffffffffffffffffff191614915050611771565b600190505b949350505050565b600080823b905060008111915050919050565b828054611798906126bc565b90600052602060002090601f0160209004810192826117ba5760008555611801565b82601f106117d357805160ff1916838001178555611801565b82800160010185558215611801579182015b828111156118005782518255916020019190600101906117e5565b5b50905061180e9190611812565b5090565b5b8082111561182b576000816000905550600101611813565b5090565b600061184261183d846124a8565b612477565b90508281526020810184848401111561185a57600080fd5b61186584828561267a565b509392505050565b600061188061187b846124d8565b612477565b90508281526020810184848401111561189857600080fd5b6118a384828561267a565b509392505050565b6000813590506118ba81612835565b92915050565b6000813590506118cf8161284c565b92915050565b6000813590506118e481612863565b92915050565b6000815190506118f981612863565b92915050565b600082601f83011261191057600080fd5b813561192084826020860161182f565b91505092915050565b600082601f83011261193a57600080fd5b813561194a84826020860161186d565b91505092915050565b6000813590506119628161287a565b92915050565b60006020828403121561197a57600080fd5b6000611988848285016118ab565b91505092915050565b600080604083850312156119a457600080fd5b60006119b2858286016118ab565b92505060206119c3858286016118ab565b9150509250929050565b6000806000606084860312156119e257600080fd5b60006119f0868287016118ab565b9350506020611a01868287016118ab565b9250506040611a1286828701611953565b9150509250925092565b60008060008060808587031215611a3257600080fd5b6000611a40878288016118ab565b9450506020611a51878288016118ab565b9350506040611a6287828801611953565b925050606085013567ffffffffffffffff811115611a7f57600080fd5b611a8b878288016118ff565b91505092959194509250565b60008060408385031215611aaa57600080fd5b6000611ab8858286016118ab565b9250506020611ac9858286016118c0565b9150509250929050565b60008060408385031215611ae657600080fd5b6000611af4858286016118ab565b9250506020611b0585828601611953565b9150509250929050565b600060208284031215611b2157600080fd5b6000611b2f848285016118d5565b91505092915050565b600060208284031215611b4a57600080fd5b6000611b58848285016118ea565b91505092915050565b600060208284031215611b7357600080fd5b600082013567ffffffffffffffff811115611b8d57600080fd5b611b9984828501611929565b91505092915050565b600060208284031215611bb457600080fd5b6000611bc284828501611953565b91505092915050565b611bd481612606565b82525050565b611be381612618565b82525050565b6000611bf482612508565b611bfe818561251e565b9350611c0e818560208601612689565b611c1781612824565b840191505092915050565b6000611c2d82612513565b611c37818561252f565b9350611c47818560208601612689565b611c5081612824565b840191505092915050565b6000611c6682612513565b611c708185612540565b9350611c80818560208601612689565b80840191505092915050565b6000611c9960328361252f565b91507f4552433732313a207472616e7366657220746f206e6f6e20455243373231526560008301527f63656976657220696d706c656d656e74657200000000000000000000000000006020830152604082019050919050565b6000611cff601c8361252f565b91507f4552433732313a20746f6b656e20616c7265616479206d696e746564000000006000830152602082019050919050565b6000611d3f60248361252f565b91507f4552433732313a207472616e7366657220746f20746865207a65726f2061646460008301527f72657373000000000000000000000000000000000000000000000000000000006020830152604082019050919050565b6000611da560198361252f565b91507f4552433732313a20617070726f766520746f2063616c6c6572000000000000006000830152602082019050919050565b6000611de5602c8361252f565b91507f4552433732313a206f70657261746f7220717565727920666f72206e6f6e657860008301527f697374656e7420746f6b656e00000000000000000000000000000000000000006020830152604082019050919050565b6000611e4b60388361252f565b91507f4552433732313a20617070726f76652063616c6c6572206973206e6f74206f7760008301527f6e6572206e6f7220617070726f76656420666f7220616c6c00000000000000006020830152604082019050919050565b6000611eb1602a8361252f565b91507f4552433732313a2062616c616e636520717565727920666f7220746865207a6560008301527f726f2061646472657373000000000000000000000000000000000000000000006020830152604082019050919050565b6000611f1760298361252f565b91507f4552433732313a206f776e657220717565727920666f72206e6f6e657869737460008301527f656e7420746f6b656e00000000000000000000000000000000000000000000006020830152604082019050919050565b6000611f7d60208361252f565b91507f4552433732313a206d696e7420746f20746865207a65726f20616464726573736000830152602082019050919050565b6000611fbd602c8361252f565b91507f4552433732313a20617070726f76656420717565727920666f72206e6f6e657860008301527f697374656e7420746f6b656e00000000000000000000000000000000000000006020830152604082019050919050565b600061202360298361252f565b91507f4552433732313a207472616e73666572206f6620746f6b656e2074686174206960008301527f73206e6f74206f776e00000000000000000000000000000000000000000000006020830152604082019050919050565b6000612089602f8361252f565b91507f4552433732314d657461646174613a2055524920717565727920666f72206e6f60008301527f6e6578697374656e7420746f6b656e00000000000000000000000000000000006020830152604082019050919050565b60006120ef60218361252f565b91507f4552433732313a20617070726f76616c20746f2063757272656e74206f776e6560008301527f72000000000000000000000000000000000000000000000000000000000000006020830152604082019050919050565b600061215560318361252f565b91507f4552433732313a207472616e736665722063616c6c6572206973206e6f74206f60008301527f776e6572206e6f7220617070726f7665640000000000000000000000000000006020830152604082019050919050565b6121b781612670565b82525050565b60006121c98284611c5b565b915081905092915050565b60006121e08285611c5b565b91506121ec8284611c5b565b91508190509392505050565b600060208201905061220d6000830184611bcb565b92915050565b60006080820190506122286000830187611bcb565b6122356020830186611bcb565b61224260408301856121ae565b81810360608301526122548184611be9565b905095945050505050565b60006020820190506122746000830184611bda565b92915050565b600060208201905081810360008301526122948184611c22565b905092915050565b600060208201905081810360008301526122b581611c8c565b9050919050565b600060208201905081810360008301526122d581611cf2565b9050919050565b600060208201905081810360008301526122f581611d32565b9050919050565b6000602082019050818103600083015261231581611d98565b9050919050565b6000602082019050818103600083015261233581611dd8565b9050919050565b6000602082019050818103600083015261235581611e3e565b9050919050565b6000602082019050818103600083015261237581611ea4565b9050919050565b6000602082019050818103600083015261239581611f0a565b9050919050565b600060208201905081810360008301526123b581611f70565b9050919050565b600060208201905081810360008301526123d581611fb0565b9050919050565b600060208201905081810360008301526123f581612016565b9050919050565b600060208201905081810360008301526124158161207c565b9050919050565b60006020820190508181036000830152612435816120e2565b9050919050565b6000602082019050818103600083015261245581612148565b9050919050565b600060208201905061247160008301846121ae565b92915050565b6000604051905081810181811067ffffffffffffffff8211171561249e5761249d6127f5565b5b8060405250919050565b600067ffffffffffffffff8211156124c3576124c26127f5565b5b601f19601f8301169050602081019050919050565b600067ffffffffffffffff8211156124f3576124f26127f5565b5b601f19601f8301169050602081019050919050565b600081519050919050565b600081519050919050565b600082825260208201905092915050565b600082825260208201905092915050565b600081905092915050565b600061255682612670565b915061256183612670565b9250827fffffffffffffffffffffffffffffffffffffffffffffffffffffffffffffffff0382111561259657612595612768565b5b828201905092915050565b60006125ac82612670565b91506125b783612670565b9250826125c7576125c6612797565b5b828204905092915050565b60006125dd82612670565b91506125e883612670565b9250828210156125fb576125fa612768565b5b828203905092915050565b600061261182612650565b9050919050565b60008115159050919050565b60007fffffffff0000000000000000000000000000000000000000000000000000000082169050919050565b600073ffffffffffffffffffffffffffffffffffffffff82169050919050565b6000819050919050565b82818337600083830152505050565b60005b838110156126a757808201518184015260208101905061268c565b838111156126b6576000848401525b50505050565b600060028204905060018216806126d457607f821691505b602082108114156126e8576126e76127c6565b5b50919050565b60006126f982612670565b91507fffffffffffffffffffffffffffffffffffffffffffffffffffffffffffffffff82141561272c5761272b612768565b5b600182019050919050565b600061274282612670565b915061274d83612670565b92508261275d5761275c612797565b5b828206905092915050565b7f4e487b7100000000000000000000000000000000000000000000000000000000600052601160045260246000fd5b7f4e487b7100000000000000000000000000000000000000000000000000000000600052601260045260246000fd5b7f4e487b7100000000000000000000000000000000000000000000000000000000600052602260045260246000fd5b7f4e487b7100000000000000000000000000000000000000000000000000000000600052604160045260246000fd5b6000601f19601f8301169050919050565b61283e81612606565b811461284957600080fd5b50565b61285581612618565b811461286057600080fd5b50565b61286c81612624565b811461287757600080fd5b50565b61288381612670565b811461288e57600080fd5b5056fea2646970667358221220bbef72637a98d0abdd6e72ce54274842c61f60a31dc5d0bb0f5287b7895d401664736f6c63430008000033",
  "immutableReferences": {},
  "source": "pragma solidity ^0.8.0;\r\n\r\nimport \"@openzeppelin/contracts/token/ERC721/ERC721.sol\";\r\n\r\ncontract StickMan is ERC721 {\r\n\r\n    string[] public StickMans;\r\n    mapping(string => bool) _stickExists;\r\n\r\n    constructor() ERC721(\"StickMan\",\"STKM\") {\r\n        \r\n    }\r\n\r\n    function mint(string memory _dna) public { //gonna let whoever wants one have a stickman, this could be restricted only to a minter address though\r\n        //if(_exists(_dna))\r\n        \r\n        StickMans.push(_dna);\r\n        uint _id = StickMans.length - 1;\r\n        _mint(msg.sender, _id);\r\n        _stickExists[_dna] = true;\r\n    }\r\n\r\n}",
  "sourcePath": "C:\\projects\\nft_vendor\\src\\contracts\\StickMan.sol",
  "compiler": {
    "name": "solc",
    "version": "0.8.0+commit.c7dfd78e.Emscripten.clang"
  },
  "schemaVersion": "3.4.4",
  "updatedAt": "2022-01-17T00:01:06.885Z",
  "networkType": "ethereum",
  "devdoc": {
    "kind": "dev",
    "methods": {
      "approve(address,uint256)": {
        "details": "See {IERC721-approve}."
      },
      "balanceOf(address)": {
        "details": "See {IERC721-balanceOf}."
      },
      "getApproved(uint256)": {
        "details": "See {IERC721-getApproved}."
      },
      "isApprovedForAll(address,address)": {
        "details": "See {IERC721-isApprovedForAll}."
      },
      "name()": {
        "details": "See {IERC721Metadata-name}."
      },
      "ownerOf(uint256)": {
        "details": "See {IERC721-ownerOf}."
      },
      "safeTransferFrom(address,address,uint256)": {
        "details": "See {IERC721-safeTransferFrom}."
      },
      "safeTransferFrom(address,address,uint256,bytes)": {
        "details": "See {IERC721-safeTransferFrom}."
      },
      "setApprovalForAll(address,bool)": {
        "details": "See {IERC721-setApprovalForAll}."
      },
      "supportsInterface(bytes4)": {
        "details": "See {IERC165-supportsInterface}."
      },
      "symbol()": {
        "details": "See {IERC721Metadata-symbol}."
      },
      "tokenURI(uint256)": {
        "details": "See {IERC721Metadata-tokenURI}."
      },
      "transferFrom(address,address,uint256)": {
        "details": "See {IERC721-transferFrom}."
      }
    },
    "version": 1
  },
  "userdoc": {
    "kind": "user",
    "methods": {},
    "version": 1
  }
}