{
  "contractName": "StickMan",
  "abi": [
    {
      "inputs": [],
      "stateMutability": "nonpayable",
      "type": "constructor"
    },
    {
      "anonymous": false,
      "inputs": [
        {
          "indexed": true,
          "internalType": "address",
          "name": "owner",
          "type": "address"
        },
        {
          "indexed": true,
          "internalType": "address",
          "name": "approved",
          "type": "address"
        },
        {
          "indexed": true,
          "internalType": "uint256",
          "name": "tokenId",
          "type": "uint256"
        }
      ],
      "name": "Approval",
      "type": "event"
    },
    {
      "anonymous": false,
      "inputs": [
        {
          "indexed": true,
          "internalType": "address",
          "name": "owner",
          "type": "address"
        },
        {
          "indexed": true,
          "internalType": "address",
          "name": "operator",
          "type": "address"
        },
        {
          "indexed": false,
          "internalType": "bool",
          "name": "approved",
          "type": "bool"
        }
      ],
      "name": "ApprovalForAll",
      "type": "event"
    },
    {
      "anonymous": false,
      "inputs": [
        {
          "indexed": true,
          "internalType": "address",
          "name": "from",
          "type": "address"
        },
        {
          "indexed": true,
          "internalType": "address",
          "name": "to",
          "type": "address"
        },
        {
          "indexed": true,
          "internalType": "uint256",
          "name": "tokenId",
          "type": "uint256"
        }
      ],
      "name": "Transfer",
      "type": "event"
    },
    {
      "inputs": [
        {
          "internalType": "uint256",
          "name": "",
          "type": "uint256"
        }
      ],
      "name": "StickMans",
      "outputs": [
        {
          "internalType": "uint256",
          "name": "",
          "type": "uint256"
        }
      ],
      "stateMutability": "view",
      "type": "function",
      "constant": true
    },
    {
      "inputs": [
        {
          "internalType": "address",
          "name": "to",
          "type": "address"
        },
        {
          "internalType": "uint256",
          "name": "tokenId",
          "type": "uint256"
        }
      ],
      "name": "approve",
      "outputs": [],
      "stateMutability": "nonpayable",
      "type": "function"
    },
    {
      "inputs": [
        {
          "internalType": "address",
          "name": "owner",
          "type": "address"
        }
      ],
      "name": "balanceOf",
      "outputs": [
        {
          "internalType": "uint256",
          "name": "",
          "type": "uint256"
        }
      ],
      "stateMutability": "view",
      "type": "function",
      "constant": true
    },
    {
      "inputs": [
        {
          "internalType": "uint256",
          "name": "tokenId",
          "type": "uint256"
        }
      ],
      "name": "getApproved",
      "outputs": [
        {
          "internalType": "address",
          "name": "",
          "type": "address"
        }
      ],
      "stateMutability": "view",
      "type": "function",
      "constant": true
    },
    {
      "inputs": [
        {
          "internalType": "address",
          "name": "owner",
          "type": "address"
        },
        {
          "internalType": "address",
          "name": "operator",
          "type": "address"
        }
      ],
      "name": "isApprovedForAll",
      "outputs": [
        {
          "internalType": "bool",
          "name": "",
          "type": "bool"
        }
      ],
      "stateMutability": "view",
      "type": "function",
      "constant": true
    },
    {
      "inputs": [],
      "name": "name",
      "outputs": [
        {
          "internalType": "string",
          "name": "",
          "type": "string"
        }
      ],
      "stateMutability": "view",
      "type": "function",
      "constant": true
    },
    {
      "inputs": [
        {
          "internalType": "uint256",
          "name": "tokenId",
          "type": "uint256"
        }
      ],
      "name": "ownerOf",
      "outputs": [
        {
          "internalType": "address",
          "name": "",
          "type": "address"
        }
      ],
      "stateMutability": "view",
      "type": "function",
      "constant": true
    },
    {
      "inputs": [
        {
          "internalType": "address",
          "name": "from",
          "type": "address"
        },
        {
          "internalType": "address",
          "name": "to",
          "type": "address"
        },
        {
          "internalType": "uint256",
          "name": "tokenId",
          "type": "uint256"
        }
      ],
      "name": "safeTransferFrom",
      "outputs": [],
      "stateMutability": "nonpayable",
      "type": "function"
    },
    {
      "inputs": [
        {
          "internalType": "address",
          "name": "from",
          "type": "address"
        },
        {
          "internalType": "address",
          "name": "to",
          "type": "address"
        },
        {
          "internalType": "uint256",
          "name": "tokenId",
          "type": "uint256"
        },
        {
          "internalType": "bytes",
          "name": "_data",
          "type": "bytes"
        }
      ],
      "name": "safeTransferFrom",
      "outputs": [],
      "stateMutability": "nonpayable",
      "type": "function"
    },
    {
      "inputs": [
        {
          "internalType": "address",
          "name": "operator",
          "type": "address"
        },
        {
          "internalType": "bool",
          "name": "approved",
          "type": "bool"
        }
      ],
      "name": "setApprovalForAll",
      "outputs": [],
      "stateMutability": "nonpayable",
      "type": "function"
    },
    {
      "inputs": [],
      "name": "symbol",
      "outputs": [
        {
          "internalType": "string",
          "name": "",
          "type": "string"
        }
      ],
      "stateMutability": "view",
      "type": "function",
      "constant": true
    },
    {
      "inputs": [
        {
          "internalType": "uint256",
          "name": "index",
          "type": "uint256"
        }
      ],
      "name": "tokenByIndex",
      "outputs": [
        {
          "internalType": "uint256",
          "name": "",
          "type": "uint256"
        }
      ],
      "stateMutability": "view",
      "type": "function",
      "constant": true
    },
    {
      "inputs": [
        {
          "internalType": "address",
          "name": "owner",
          "type": "address"
        },
        {
          "internalType": "uint256",
          "name": "index",
          "type": "uint256"
        }
      ],
      "name": "tokenOfOwnerByIndex",
      "outputs": [
        {
          "internalType": "uint256",
          "name": "",
          "type": "uint256"
        }
      ],
      "stateMutability": "view",
      "type": "function",
      "constant": true
    },
    {
      "inputs": [
        {
          "internalType": "uint256",
          "name": "tokenId",
          "type": "uint256"
        }
      ],
      "name": "tokenURI",
      "outputs": [
        {
          "internalType": "string",
          "name": "",
          "type": "string"
        }
      ],
      "stateMutability": "view",
      "type": "function",
      "constant": true
    },
    {
      "inputs": [
        {
          "internalType": "address",
          "name": "from",
          "type": "address"
        },
        {
          "internalType": "address",
          "name": "to",
          "type": "address"
        },
        {
          "internalType": "uint256",
          "name": "tokenId",
          "type": "uint256"
        }
      ],
      "name": "transferFrom",
      "outputs": [],
      "stateMutability": "nonpayable",
      "type": "function"
    },
    {
      "inputs": [
        {
          "internalType": "bytes4",
          "name": "interfaceId",
          "type": "bytes4"
        }
      ],
      "name": "supportsInterface",
      "outputs": [
        {
          "internalType": "bool",
          "name": "",
          "type": "bool"
        }
      ],
      "stateMutability": "view",
      "type": "function",
      "constant": true
    },
    {
      "inputs": [],
      "name": "totalSupply",
      "outputs": [
        {
          "internalType": "uint256",
          "name": "",
          "type": "uint256"
        }
      ],
      "stateMutability": "view",
      "type": "function",
      "constant": true
    },
    {
      "inputs": [
        {
          "internalType": "uint256",
          "name": "_dna",
          "type": "uint256"
        }
      ],
      "name": "mint",
      "outputs": [],
      "stateMutability": "nonpayable",
      "type": "function"
    }
  ],
  "bytecode": "0x60806040523480156200001157600080fd5b506040518060400160405280600881526020017f537469636b4d616e0000000000000000000000000000000000000000000000008152506040518060400160405280600481526020017f53544b4d00000000000000000000000000000000000000000000000000000000815250816000908051906020019062000096929190620000b8565b508060019080519060200190620000af929190620000b8565b505050620001cd565b828054620000c69062000168565b90600052602060002090601f016020900481019282620000ea576000855562000136565b82601f106200010557805160ff191683800117855562000136565b8280016001018555821562000136579182015b828111156200013557825182559160200191906001019062000118565b5b50905062000145919062000149565b5090565b5b80821115620001645760008160009055506001016200014a565b5090565b600060028204905060018216806200018157607f821691505b602082108114156200019857620001976200019e565b5b50919050565b7f4e487b7100000000000000000000000000000000000000000000000000000000600052602260045260246000fd5b612ee280620001dd6000396000f3fe608060405234801561001057600080fd5b50600436106101165760003560e01c80634f6ccce7116100a2578063a0712d6811610071578063a0712d6814610319578063a22cb46514610335578063b88d4fde14610351578063c87b56dd1461036d578063e985e9c51461039d57610116565b80634f6ccce71461026b5780636352211e1461029b57806370a08231146102cb57806395d89b41146102fb57610116565b8063095ea7b3116100e9578063095ea7b3146101c957806318160ddd146101e557806323b872dd146102035780632f745c591461021f57806342842e0e1461024f57610116565b806301ffc9a71461011b5780630457420f1461014b57806306fdde031461017b578063081812fc14610199575b600080fd5b610135600480360381019061013091906120a6565b6103cd565b604051610142919061286a565b60405180910390f35b610165600480360381019061016091906120f8565b6103df565b6040516101729190612aa7565b60405180910390f35b610183610403565b6040516101909190612885565b60405180910390f35b6101b360048036038101906101ae91906120f8565b610495565b6040516101c09190612803565b60405180910390f35b6101e360048036038101906101de919061206a565b61051a565b005b6101ed610632565b6040516101fa9190612aa7565b60405180910390f35b61021d60048036038101906102189190611f64565b61063f565b005b6102396004803603810190610234919061206a565b61069f565b6040516102469190612aa7565b60405180910390f35b61026960048036038101906102649190611f64565b610744565b005b610285600480360381019061028091906120f8565b610764565b6040516102929190612aa7565b60405180910390f35b6102b560048036038101906102b091906120f8565b6107fb565b6040516102c29190612803565b60405180910390f35b6102e560048036038101906102e09190611eff565b6108ad565b6040516102f29190612aa7565b60405180910390f35b610303610965565b6040516103109190612885565b60405180910390f35b610333600480360381019061032e91906120f8565b6109f7565b005b61034f600480360381019061034a919061202e565b610a9b565b005b61036b60048036038101906103669190611fb3565b610ab1565b005b610387600480360381019061038291906120f8565b610b13565b6040516103949190612885565b60405180910390f35b6103b760048036038101906103b29190611f28565b610bba565b6040516103c4919061286a565b60405180910390f35b60006103d882610c4e565b9050919050565b600a81815481106103ef57600080fd5b906000526020600020016000915090505481565b60606000805461041290612cd7565b80601f016020809104026020016040519081016040528092919081815260200182805461043e90612cd7565b801561048b5780601f106104605761010080835404028352916020019161048b565b820191906000526020600020905b81548152906001019060200180831161046e57829003601f168201915b5050505050905090565b60006104a082610cc8565b6104df576040517f08c379a00000000000000000000000000000000000000000000000000000000081526004016104d6906129e7565b60405180910390fd5b6004600083815260200190815260200160002060009054906101000a900473ffffffffffffffffffffffffffffffffffffffff169050919050565b6000610525826107fb565b90508073ffffffffffffffffffffffffffffffffffffffff168373ffffffffffffffffffffffffffffffffffffffff161415610596576040517f08c379a000000000000000000000000000000000000000000000000000000000815260040161058d90612a47565b60405180910390fd5b8073ffffffffffffffffffffffffffffffffffffffff166105b5610d34565b73ffffffffffffffffffffffffffffffffffffffff1614806105e457506105e3816105de610d34565b610bba565b5b610623576040517f08c379a000000000000000000000000000000000000000000000000000000000815260040161061a90612967565b60405180910390fd5b61062d8383610d3c565b505050565b6000600a80549050905090565b61065061064a610d34565b82610df5565b61068f576040517f08c379a000000000000000000000000000000000000000000000000000000000815260040161068690612a67565b60405180910390fd5b61069a838383610ed3565b505050565b60006106aa836108ad565b82106106eb576040517f08c379a00000000000000000000000000000000000000000000000000000000081526004016106e2906128a7565b60405180910390fd5b600660008473ffffffffffffffffffffffffffffffffffffffff1673ffffffffffffffffffffffffffffffffffffffff168152602001908152602001600020600083815260200190815260200160002054905092915050565b61075f83838360405180602001604052806000815250610ab1565b505050565b600061076e61112f565b82106107af576040517f08c379a00000000000000000000000000000000000000000000000000000000081526004016107a690612a87565b60405180910390fd5b600882815481106107e9577f4e487b7100000000000000000000000000000000000000000000000000000000600052603260045260246000fd5b90600052602060002001549050919050565b6000806002600084815260200190815260200160002060009054906101000a900473ffffffffffffffffffffffffffffffffffffffff169050600073ffffffffffffffffffffffffffffffffffffffff168173ffffffffffffffffffffffffffffffffffffffff1614156108a4576040517f08c379a000000000000000000000000000000000000000000000000000000000815260040161089b906129a7565b60405180910390fd5b80915050919050565b60008073ffffffffffffffffffffffffffffffffffffffff168273ffffffffffffffffffffffffffffffffffffffff16141561091e576040517f08c379a000000000000000000000000000000000000000000000000000000000815260040161091590612987565b60405180910390fd5b600360008373ffffffffffffffffffffffffffffffffffffffff1673ffffffffffffffffffffffffffffffffffffffff168152602001908152602001600020549050919050565b60606001805461097490612cd7565b80601f01602080910402602001604051908101604052809291908181526020018280546109a090612cd7565b80156109ed5780601f106109c2576101008083540402835291602001916109ed565b820191906000526020600020905b8154815290600101906020018083116109d057829003601f168201915b5050505050905090565b600b600082815260200190815260200160002060009054906101000a900460ff1615610a2257600080fd5b600a81908060018154018082558091505060019003906000526020600020016000909190919091505560006001600a80549050610a5f9190612bed565b9050610a6b338261113c565b6001600b600084815260200190815260200160002060006101000a81548160ff0219169083151502179055505050565b610aad610aa6610d34565b838361130a565b5050565b610ac2610abc610d34565b83610df5565b610b01576040517f08c379a0000000000000000000000000000000000000000000000000000000008152600401610af890612a67565b60405180910390fd5b610b0d84848484611477565b50505050565b6060610b1e82610cc8565b610b5d576040517f08c379a0000000000000000000000000000000000000000000000000000000008152600401610b5490612a27565b60405180910390fd5b6000610b676114d3565b90506000815111610b875760405180602001604052806000815250610bb2565b80610b91846114ea565b604051602001610ba29291906127df565b6040516020818303038152906040525b915050919050565b6000600560008473ffffffffffffffffffffffffffffffffffffffff1673ffffffffffffffffffffffffffffffffffffffff16815260200190815260200160002060008373ffffffffffffffffffffffffffffffffffffffff1673ffffffffffffffffffffffffffffffffffffffff16815260200190815260200160002060009054906101000a900460ff16905092915050565b60007f780e9d63000000000000000000000000000000000000000000000000000000007bffffffffffffffffffffffffffffffffffffffffffffffffffffffff1916827bffffffffffffffffffffffffffffffffffffffffffffffffffffffff19161480610cc15750610cc082611697565b5b9050919050565b60008073ffffffffffffffffffffffffffffffffffffffff166002600084815260200190815260200160002060009054906101000a900473ffffffffffffffffffffffffffffffffffffffff1673ffffffffffffffffffffffffffffffffffffffff1614159050919050565b600033905090565b816004600083815260200190815260200160002060006101000a81548173ffffffffffffffffffffffffffffffffffffffff021916908373ffffffffffffffffffffffffffffffffffffffff160217905550808273ffffffffffffffffffffffffffffffffffffffff16610daf836107fb565b73ffffffffffffffffffffffffffffffffffffffff167f8c5be1e5ebec7d5bd14f71427d1e84f3dd0314c0f7b2291e5b200ac8c7c3b92560405160405180910390a45050565b6000610e0082610cc8565b610e3f576040517f08c379a0000000000000000000000000000000000000000000000000000000008152600401610e3690612947565b60405180910390fd5b6000610e4a836107fb565b90508073ffffffffffffffffffffffffffffffffffffffff168473ffffffffffffffffffffffffffffffffffffffff161480610eb957508373ffffffffffffffffffffffffffffffffffffffff16610ea184610495565b73ffffffffffffffffffffffffffffffffffffffff16145b80610eca5750610ec98185610bba565b5b91505092915050565b8273ffffffffffffffffffffffffffffffffffffffff16610ef3826107fb565b73ffffffffffffffffffffffffffffffffffffffff1614610f49576040517f08c379a0000000000000000000000000000000000000000000000000000000008152600401610f4090612a07565b60405180910390fd5b600073ffffffffffffffffffffffffffffffffffffffff168273ffffffffffffffffffffffffffffffffffffffff161415610fb9576040517f08c379a0000000000000000000000000000000000000000000000000000000008152600401610fb090612907565b60405180910390fd5b610fc4838383611779565b610fcf600082610d3c565b6001600360008573ffffffffffffffffffffffffffffffffffffffff1673ffffffffffffffffffffffffffffffffffffffff168152602001908152602001600020600082825461101f9190612bed565b925050819055506001600360008473ffffffffffffffffffffffffffffffffffffffff1673ffffffffffffffffffffffffffffffffffffffff16815260200190815260200160002060008282546110769190612b66565b92505081905550816002600083815260200190815260200160002060006101000a81548173ffffffffffffffffffffffffffffffffffffffff021916908373ffffffffffffffffffffffffffffffffffffffff160217905550808273ffffffffffffffffffffffffffffffffffffffff168473ffffffffffffffffffffffffffffffffffffffff167fddf252ad1be2c89b69c2b068fc378daa952ba7f163c4a11628f55a4df523b3ef60405160405180910390a4505050565b6000600880549050905090565b600073ffffffffffffffffffffffffffffffffffffffff168273ffffffffffffffffffffffffffffffffffffffff1614156111ac576040517f08c379a00000000000000000000000000000000000000000000000000000000081526004016111a3906129c7565b60405180910390fd5b6111b581610cc8565b156111f5576040517f08c379a00000000000000000000000000000000000000000000000000000000081526004016111ec906128e7565b60405180910390fd5b61120160008383611779565b6001600360008473ffffffffffffffffffffffffffffffffffffffff1673ffffffffffffffffffffffffffffffffffffffff16815260200190815260200160002060008282546112519190612b66565b92505081905550816002600083815260200190815260200160002060006101000a81548173ffffffffffffffffffffffffffffffffffffffff021916908373ffffffffffffffffffffffffffffffffffffffff160217905550808273ffffffffffffffffffffffffffffffffffffffff16600073ffffffffffffffffffffffffffffffffffffffff167fddf252ad1be2c89b69c2b068fc378daa952ba7f163c4a11628f55a4df523b3ef60405160405180910390a45050565b8173ffffffffffffffffffffffffffffffffffffffff168373ffffffffffffffffffffffffffffffffffffffff161415611379576040517f08c379a000000000000000000000000000000000000000000000000000000000815260040161137090612927565b60405180910390fd5b80600560008573ffffffffffffffffffffffffffffffffffffffff1673ffffffffffffffffffffffffffffffffffffffff16815260200190815260200160002060008473ffffffffffffffffffffffffffffffffffffffff1673ffffffffffffffffffffffffffffffffffffffff16815260200190815260200160002060006101000a81548160ff0219169083151502179055508173ffffffffffffffffffffffffffffffffffffffff168373ffffffffffffffffffffffffffffffffffffffff167f17307eab39ab6107e8899845ad3d59bd9653f200f220920489ca2b5937696c318360405161146a919061286a565b60405180910390a3505050565b611482848484610ed3565b61148e84848484611789565b6114cd576040517f08c379a00000000000000000000000000000000000000000000000000000000081526004016114c4906128c7565b60405180910390fd5b50505050565b606060405180602001604052806000815250905090565b60606000821415611532576040518060400160405280600181526020017f30000000000000000000000000000000000000000000000000000000000000008152509050611692565b600082905060005b6000821461156457808061154d90612d09565b915050600a8261155d9190612bbc565b915061153a565b60008167ffffffffffffffff8111156115a6577f4e487b7100000000000000000000000000000000000000000000000000000000600052604160045260246000fd5b6040519080825280601f01601f1916602001820160405280156115d85781602001600182028036833780820191505090505b5090505b6000851461168b576001826115f19190612bed565b9150600a856116009190612d52565b603061160c9190612b66565b60f81b818381518110611648577f4e487b7100000000000000000000000000000000000000000000000000000000600052603260045260246000fd5b60200101907effffffffffffffffffffffffffffffffffffffffffffffffffffffffffffff1916908160001a905350600a856116849190612bbc565b94506115dc565b8093505050505b919050565b60007f80ac58cd000000000000000000000000000000000000000000000000000000007bffffffffffffffffffffffffffffffffffffffffffffffffffffffff1916827bffffffffffffffffffffffffffffffffffffffffffffffffffffffff1916148061176257507f5b5e139f000000000000000000000000000000000000000000000000000000007bffffffffffffffffffffffffffffffffffffffffffffffffffffffff1916827bffffffffffffffffffffffffffffffffffffffffffffffffffffffff1916145b80611772575061177182611920565b5b9050919050565b61178483838361198a565b505050565b60006117aa8473ffffffffffffffffffffffffffffffffffffffff16611a9e565b15611913578373ffffffffffffffffffffffffffffffffffffffff1663150b7a026117d3610d34565b8786866040518563ffffffff1660e01b81526004016117f5949392919061281e565b602060405180830381600087803b15801561180f57600080fd5b505af192505050801561184057506040513d601f19601f8201168201806040525081019061183d91906120cf565b60015b6118c3573d8060008114611870576040519150601f19603f3d011682016040523d82523d6000602084013e611875565b606091505b506000815114156118bb576040517f08c379a00000000000000000000000000000000000000000000000000000000081526004016118b2906128c7565b60405180910390fd5b805181602001fd5b63150b7a0260e01b7bffffffffffffffffffffffffffffffffffffffffffffffffffffffff1916817bffffffffffffffffffffffffffffffffffffffffffffffffffffffff191614915050611918565b600190505b949350505050565b60007f01ffc9a7000000000000000000000000000000000000000000000000000000007bffffffffffffffffffffffffffffffffffffffffffffffffffffffff1916827bffffffffffffffffffffffffffffffffffffffffffffffffffffffff1916149050919050565b611995838383611ab1565b600073ffffffffffffffffffffffffffffffffffffffff168373ffffffffffffffffffffffffffffffffffffffff1614156119d8576119d381611ab6565b611a17565b8173ffffffffffffffffffffffffffffffffffffffff168373ffffffffffffffffffffffffffffffffffffffff1614611a1657611a158382611aff565b5b5b600073ffffffffffffffffffffffffffffffffffffffff168273ffffffffffffffffffffffffffffffffffffffff161415611a5a57611a5581611c6c565b611a99565b8273ffffffffffffffffffffffffffffffffffffffff168273ffffffffffffffffffffffffffffffffffffffff1614611a9857611a978282611daf565b5b5b505050565b600080823b905060008111915050919050565b505050565b6008805490506009600083815260200190815260200160002081905550600881908060018154018082558091505060019003906000526020600020016000909190919091505550565b60006001611b0c846108ad565b611b169190612bed565b9050600060076000848152602001908152602001600020549050818114611bfb576000600660008673ffffffffffffffffffffffffffffffffffffffff1673ffffffffffffffffffffffffffffffffffffffff168152602001908152602001600020600084815260200190815260200160002054905080600660008773ffffffffffffffffffffffffffffffffffffffff1673ffffffffffffffffffffffffffffffffffffffff168152602001908152602001600020600084815260200190815260200160002081905550816007600083815260200190815260200160002081905550505b6007600084815260200190815260200160002060009055600660008573ffffffffffffffffffffffffffffffffffffffff1673ffffffffffffffffffffffffffffffffffffffff16815260200190815260200160002060008381526020019081526020016000206000905550505050565b60006001600880549050611c809190612bed565b9050600060096000848152602001908152602001600020549050600060088381548110611cd6577f4e487b7100000000000000000000000000000000000000000000000000000000600052603260045260246000fd5b906000526020600020015490508060088381548110611d1e577f4e487b7100000000000000000000000000000000000000000000000000000000600052603260045260246000fd5b906000526020600020018190555081600960008381526020019081526020016000208190555060096000858152602001908152602001600020600090556008805480611d93577f4e487b7100000000000000000000000000000000000000000000000000000000600052603160045260246000fd5b6001900381819060005260206000200160009055905550505050565b6000611dba836108ad565b905081600660008573ffffffffffffffffffffffffffffffffffffffff1673ffffffffffffffffffffffffffffffffffffffff168152602001908152602001600020600083815260200190815260200160002081905550806007600084815260200190815260200160002081905550505050565b6000611e41611e3c84612af3565b612ac2565b905082815260208101848484011115611e5957600080fd5b611e64848285612c95565b509392505050565b600081359050611e7b81612e50565b92915050565b600081359050611e9081612e67565b92915050565b600081359050611ea581612e7e565b92915050565b600081519050611eba81612e7e565b92915050565b600082601f830112611ed157600080fd5b8135611ee1848260208601611e2e565b91505092915050565b600081359050611ef981612e95565b92915050565b600060208284031215611f1157600080fd5b6000611f1f84828501611e6c565b91505092915050565b60008060408385031215611f3b57600080fd5b6000611f4985828601611e6c565b9250506020611f5a85828601611e6c565b9150509250929050565b600080600060608486031215611f7957600080fd5b6000611f8786828701611e6c565b9350506020611f9886828701611e6c565b9250506040611fa986828701611eea565b9150509250925092565b60008060008060808587031215611fc957600080fd5b6000611fd787828801611e6c565b9450506020611fe887828801611e6c565b9350506040611ff987828801611eea565b925050606085013567ffffffffffffffff81111561201657600080fd5b61202287828801611ec0565b91505092959194509250565b6000806040838503121561204157600080fd5b600061204f85828601611e6c565b925050602061206085828601611e81565b9150509250929050565b6000806040838503121561207d57600080fd5b600061208b85828601611e6c565b925050602061209c85828601611eea565b9150509250929050565b6000602082840312156120b857600080fd5b60006120c684828501611e96565b91505092915050565b6000602082840312156120e157600080fd5b60006120ef84828501611eab565b91505092915050565b60006020828403121561210a57600080fd5b600061211884828501611eea565b91505092915050565b61212a81612c21565b82525050565b61213981612c33565b82525050565b600061214a82612b23565b6121548185612b39565b9350612164818560208601612ca4565b61216d81612e3f565b840191505092915050565b600061218382612b2e565b61218d8185612b4a565b935061219d818560208601612ca4565b6121a681612e3f565b840191505092915050565b60006121bc82612b2e565b6121c68185612b5b565b93506121d6818560208601612ca4565b80840191505092915050565b60006121ef602b83612b4a565b91507f455243373231456e756d657261626c653a206f776e657220696e646578206f7560008301527f74206f6620626f756e64730000000000000000000000000000000000000000006020830152604082019050919050565b6000612255603283612b4a565b91507f4552433732313a207472616e7366657220746f206e6f6e20455243373231526560008301527f63656976657220696d706c656d656e74657200000000000000000000000000006020830152604082019050919050565b60006122bb601c83612b4a565b91507f4552433732313a20746f6b656e20616c7265616479206d696e746564000000006000830152602082019050919050565b60006122fb602483612b4a565b91507f4552433732313a207472616e7366657220746f20746865207a65726f2061646460008301527f72657373000000000000000000000000000000000000000000000000000000006020830152604082019050919050565b6000612361601983612b4a565b91507f4552433732313a20617070726f766520746f2063616c6c6572000000000000006000830152602082019050919050565b60006123a1602c83612b4a565b91507f4552433732313a206f70657261746f7220717565727920666f72206e6f6e657860008301527f697374656e7420746f6b656e00000000000000000000000000000000000000006020830152604082019050919050565b6000612407603883612b4a565b91507f4552433732313a20617070726f76652063616c6c6572206973206e6f74206f7760008301527f6e6572206e6f7220617070726f76656420666f7220616c6c00000000000000006020830152604082019050919050565b600061246d602a83612b4a565b91507f4552433732313a2062616c616e636520717565727920666f7220746865207a6560008301527f726f2061646472657373000000000000000000000000000000000000000000006020830152604082019050919050565b60006124d3602983612b4a565b91507f4552433732313a206f776e657220717565727920666f72206e6f6e657869737460008301527f656e7420746f6b656e00000000000000000000000000000000000000000000006020830152604082019050919050565b6000612539602083612b4a565b91507f4552433732313a206d696e7420746f20746865207a65726f20616464726573736000830152602082019050919050565b6000612579602c83612b4a565b91507f4552433732313a20617070726f76656420717565727920666f72206e6f6e657860008301527f697374656e7420746f6b656e00000000000000000000000000000000000000006020830152604082019050919050565b60006125df602983612b4a565b91507f4552433732313a207472616e73666572206f6620746f6b656e2074686174206960008301527f73206e6f74206f776e00000000000000000000000000000000000000000000006020830152604082019050919050565b6000612645602f83612b4a565b91507f4552433732314d657461646174613a2055524920717565727920666f72206e6f60008301527f6e6578697374656e7420746f6b656e00000000000000000000000000000000006020830152604082019050919050565b60006126ab602183612b4a565b91507f4552433732313a20617070726f76616c20746f2063757272656e74206f776e6560008301527f72000000000000000000000000000000000000000000000000000000000000006020830152604082019050919050565b6000612711603183612b4a565b91507f4552433732313a207472616e736665722063616c6c6572206973206e6f74206f60008301527f776e6572206e6f7220617070726f7665640000000000000000000000000000006020830152604082019050919050565b6000612777602c83612b4a565b91507f455243373231456e756d657261626c653a20676c6f62616c20696e646578206f60008301527f7574206f6620626f756e647300000000000000000000000000000000000000006020830152604082019050919050565b6127d981612c8b565b82525050565b60006127eb82856121b1565b91506127f782846121b1565b91508190509392505050565b60006020820190506128186000830184612121565b92915050565b60006080820190506128336000830187612121565b6128406020830186612121565b61284d60408301856127d0565b818103606083015261285f818461213f565b905095945050505050565b600060208201905061287f6000830184612130565b92915050565b6000602082019050818103600083015261289f8184612178565b905092915050565b600060208201905081810360008301526128c0816121e2565b9050919050565b600060208201905081810360008301526128e081612248565b9050919050565b60006020820190508181036000830152612900816122ae565b9050919050565b60006020820190508181036000830152612920816122ee565b9050919050565b6000602082019050818103600083015261294081612354565b9050919050565b6000602082019050818103600083015261296081612394565b9050919050565b60006020820190508181036000830152612980816123fa565b9050919050565b600060208201905081810360008301526129a081612460565b9050919050565b600060208201905081810360008301526129c0816124c6565b9050919050565b600060208201905081810360008301526129e08161252c565b9050919050565b60006020820190508181036000830152612a008161256c565b9050919050565b60006020820190508181036000830152612a20816125d2565b9050919050565b60006020820190508181036000830152612a4081612638565b9050919050565b60006020820190508181036000830152612a608161269e565b9050919050565b60006020820190508181036000830152612a8081612704565b9050919050565b60006020820190508181036000830152612aa08161276a565b9050919050565b6000602082019050612abc60008301846127d0565b92915050565b6000604051905081810181811067ffffffffffffffff82111715612ae957612ae8612e10565b5b8060405250919050565b600067ffffffffffffffff821115612b0e57612b0d612e10565b5b601f19601f8301169050602081019050919050565b600081519050919050565b600081519050919050565b600082825260208201905092915050565b600082825260208201905092915050565b600081905092915050565b6000612b7182612c8b565b9150612b7c83612c8b565b9250827fffffffffffffffffffffffffffffffffffffffffffffffffffffffffffffffff03821115612bb157612bb0612d83565b5b828201905092915050565b6000612bc782612c8b565b9150612bd283612c8b565b925082612be257612be1612db2565b5b828204905092915050565b6000612bf882612c8b565b9150612c0383612c8b565b925082821015612c1657612c15612d83565b5b828203905092915050565b6000612c2c82612c6b565b9050919050565b60008115159050919050565b60007fffffffff0000000000000000000000000000000000000000000000000000000082169050919050565b600073ffffffffffffffffffffffffffffffffffffffff82169050919050565b6000819050919050565b82818337600083830152505050565b60005b83811015612cc2578082015181840152602081019050612ca7565b83811115612cd1576000848401525b50505050565b60006002820490506001821680612cef57607f821691505b60208210811415612d0357612d02612de1565b5b50919050565b6000612d1482612c8b565b91507fffffffffffffffffffffffffffffffffffffffffffffffffffffffffffffffff821415612d4757612d46612d83565b5b600182019050919050565b6000612d5d82612c8b565b9150612d6883612c8b565b925082612d7857612d77612db2565b5b828206905092915050565b7f4e487b7100000000000000000000000000000000000000000000000000000000600052601160045260246000fd5b7f4e487b7100000000000000000000000000000000000000000000000000000000600052601260045260246000fd5b7f4e487b7100000000000000000000000000000000000000000000000000000000600052602260045260246000fd5b7f4e487b7100000000000000000000000000000000000000000000000000000000600052604160045260246000fd5b6000601f19601f8301169050919050565b612e5981612c21565b8114612e6457600080fd5b50565b612e7081612c33565b8114612e7b57600080fd5b50565b612e8781612c3f565b8114612e9257600080fd5b50565b612e9e81612c8b565b8114612ea957600080fd5b5056fea2646970667358221220f9bdc62be4408e43bad0252e3ea7f3aa583ae26e9ac319b6bdb2041770de62e264736f6c63430008000033",
  "immutableReferences": {},
  "source": "pragma solidity ^0.8.0;\r\n\r\nimport \"@openzeppelin/contracts/token/ERC721/ERC721.sol\";\r\nimport \"@openzeppelin/contracts/token/ERC721/extensions/ERC721Enumerable.sol\";\r\n\r\ncontract StickMan is ERC721, ERC721Enumerable {\r\n\r\n    uint[] public StickMans;\r\n    mapping(uint => bool) _stickExists;\r\n\r\n    constructor() ERC721(\"StickMan\",\"STKM\") {\r\n        \r\n    }\r\n\r\n    function _beforeTokenTransfer(address from, address to, uint256 tokenId) internal override(ERC721, ERC721Enumerable) {\r\n        super._beforeTokenTransfer(from,to,tokenId);\r\n    }\r\n    \r\n    function supportsInterface(bytes4 interfaceId) public view override (ERC721, ERC721Enumerable) returns (bool) {\r\n        return super.supportsInterface(interfaceId);\r\n    }\r\n\r\n    function totalSupply() public view override returns(uint256) {\r\n        return uint256(StickMans.length);\r\n    }\r\n\r\n    function mint(uint _dna) public { //gonna let whoever wants one have a stickman, this could be restricted only to a minter address though\r\n        require(!_stickExists[_dna]);\r\n        StickMans.push(_dna);\r\n        uint _id = StickMans.length - 1;\r\n        _mint(msg.sender, _id);\r\n        _stickExists[_dna] = true;\r\n    }\r\n\r\n}",
  "sourcePath": "D:\\Projects\\nft_vendor\\vendor\\src\\contracts\\StickMan.sol",
  "compiler": {
    "name": "solc",
    "version": "0.8.0+commit.c7dfd78e.Emscripten.clang"
  },
  "schemaVersion": "3.4.4",
  "updatedAt": "2022-01-25T18:54:26.052Z",
  "networkType": "ethereum",
  "devdoc": {
    "kind": "dev",
    "methods": {
      "approve(address,uint256)": {
        "details": "See {IERC721-approve}."
      },
      "balanceOf(address)": {
        "details": "See {IERC721-balanceOf}."
      },
      "getApproved(uint256)": {
        "details": "See {IERC721-getApproved}."
      },
      "isApprovedForAll(address,address)": {
        "details": "See {IERC721-isApprovedForAll}."
      },
      "name()": {
        "details": "See {IERC721Metadata-name}."
      },
      "ownerOf(uint256)": {
        "details": "See {IERC721-ownerOf}."
      },
      "safeTransferFrom(address,address,uint256)": {
        "details": "See {IERC721-safeTransferFrom}."
      },
      "safeTransferFrom(address,address,uint256,bytes)": {
        "details": "See {IERC721-safeTransferFrom}."
      },
      "setApprovalForAll(address,bool)": {
        "details": "See {IERC721-setApprovalForAll}."
      },
      "symbol()": {
        "details": "See {IERC721Metadata-symbol}."
      },
      "tokenByIndex(uint256)": {
        "details": "See {IERC721Enumerable-tokenByIndex}."
      },
      "tokenOfOwnerByIndex(address,uint256)": {
        "details": "See {IERC721Enumerable-tokenOfOwnerByIndex}."
      },
      "tokenURI(uint256)": {
        "details": "See {IERC721Metadata-tokenURI}."
      },
      "totalSupply()": {
        "details": "See {IERC721Enumerable-totalSupply}."
      },
      "transferFrom(address,address,uint256)": {
        "details": "See {IERC721-transferFrom}."
      }
    },
    "version": 1
  },
  "userdoc": {
    "kind": "user",
    "methods": {},
    "version": 1
  }
}